{
  "contractName": "ERC721",
  "abi": [
    {
      "inputs": [],
      "stateMutability": "nonpayable",
      "type": "constructor"
    },
    {
      "anonymous": false,
      "inputs": [
        {
          "indexed": true,
          "internalType": "address",
          "name": "_owner",
          "type": "address"
        },
        {
          "indexed": true,
          "internalType": "address",
          "name": "_approved",
          "type": "address"
        },
        {
          "indexed": true,
          "internalType": "uint256",
          "name": "_tokenId",
          "type": "uint256"
        }
      ],
      "name": "Approval",
      "type": "event"
    },
    {
      "anonymous": false,
      "inputs": [
        {
          "indexed": true,
          "internalType": "address",
          "name": "_from",
          "type": "address"
        },
        {
          "indexed": true,
          "internalType": "address",
          "name": "_to",
          "type": "address"
        },
        {
          "indexed": true,
          "internalType": "uint256",
          "name": "_tokenId",
          "type": "uint256"
        }
      ],
      "name": "Transfer",
      "type": "event"
    },
    {
      "inputs": [
        {
          "internalType": "bytes4",
          "name": "interfaceID",
          "type": "bytes4"
        }
      ],
      "name": "supportsInterface",
      "outputs": [
        {
          "internalType": "bool",
          "name": "",
          "type": "bool"
        }
      ],
      "stateMutability": "view",
      "type": "function"
    },
    {
      "inputs": [
        {
          "internalType": "address",
          "name": "_owner",
          "type": "address"
        }
      ],
      "name": "balanceOf",
      "outputs": [
        {
          "internalType": "uint256",
          "name": "",
          "type": "uint256"
        }
      ],
      "stateMutability": "view",
      "type": "function"
    },
    {
      "inputs": [
        {
          "internalType": "uint256",
          "name": "_tokenId",
          "type": "uint256"
        }
      ],
      "name": "ownerOf",
      "outputs": [
        {
          "internalType": "address",
          "name": "",
          "type": "address"
        }
      ],
      "stateMutability": "view",
      "type": "function"
    },
    {
      "inputs": [
        {
          "internalType": "address",
          "name": "_from",
          "type": "address"
        },
        {
          "internalType": "address",
          "name": "_to",
          "type": "address"
        },
        {
          "internalType": "uint256",
          "name": "_tokenId",
          "type": "uint256"
        }
      ],
      "name": "transferFrom",
      "outputs": [],
      "stateMutability": "nonpayable",
      "type": "function"
    },
    {
      "inputs": [
        {
          "internalType": "address",
          "name": "_to",
          "type": "address"
        },
        {
          "internalType": "uint256",
          "name": "_tokenId",
          "type": "uint256"
        }
      ],
      "name": "approve",
      "outputs": [],
      "stateMutability": "nonpayable",
      "type": "function"
    },
    {
      "inputs": [
        {
          "internalType": "uint256",
          "name": "tokenId",
          "type": "uint256"
        }
      ],
      "name": "getApproved",
      "outputs": [
        {
          "internalType": "address",
          "name": "",
          "type": "address"
        }
      ],
      "stateMutability": "view",
      "type": "function"
    }
  ],
  "bytecode": "0x608060405234801561001057600080fd5b506100407f01ffc9a7a5cef8baa21ed3c5c0d7e23accb804b619e9333b597f47a0d84076e26100b860201b60201c565b6100b37f23b872dd7302113369cda2901243429419bec145408fa8b352b3dd92b66c680b7f6352211e6566aa027e75ac9dbf2423197fbd9b82b9d981a3ab367d355866aa1c7f70a08231b98ef4ca268c9cc3f6b4590e4bfec28280db06bb5d45e689f2a360be18186100b860201b60201c565b610209565b63ffffffff60e01b817bffffffffffffffffffffffffffffffffffffffffffffffffffffffff191603610120576040517f08c379a0000000000000000000000000000000000000000000000000000000008152600401610117906101e9565b60405180910390fd5b6001600080837bffffffffffffffffffffffffffffffffffffffffffffffffffffffff19167bffffffffffffffffffffffffffffffffffffffffffffffffffffffff1916815260200190815260200160002060006101000a81548160ff02191690831515021790555050565b600082825260208201905092915050565b7f496e76616c696420696e74657266616365207265717565737400000000000000600082015250565b60006101d360198361018c565b91506101de8261019d565b602082019050919050565b60006020820190508181036000830152610202816101c6565b9050919050565b610fdb80620002196000396000f3fe608060405234801561001057600080fd5b50600436106100625760003560e01c806301ffc9a714610067578063081812fc14610097578063095ea7b3146100c757806323b872dd146100e35780636352211e146100ff57806370a082311461012f575b600080fd5b610081600480360381019061007c919061097f565b61015f565b60405161008e91906109c7565b60405180910390f35b6100b160048036038101906100ac9190610a18565b6101c6565b6040516100be9190610a86565b60405180910390f35b6100e160048036038101906100dc9190610acd565b61024b565b005b6100fd60048036038101906100f89190610b0d565b6103e6565b005b61011960048036038101906101149190610a18565b610409565b6040516101269190610a86565b60405180910390f35b61014960048036038101906101449190610b60565b6104e7565b6040516101569190610b9c565b60405180910390f35b6000806000837bffffffffffffffffffffffffffffffffffffffffffffffffffffffff19167bffffffffffffffffffffffffffffffffffffffffffffffffffffffff1916815260200190815260200160002060009054906101000a900460ff169050919050565b60006101d18261059e565b610210576040517f08c379a000000000000000000000000000000000000000000000000000000000815260040161020790610c14565b60405180910390fd5b6003600083815260200190815260200160002060009054906101000a900473ffffffffffffffffffffffffffffffffffffffff169050919050565b600061025682610409565b90508073ffffffffffffffffffffffffffffffffffffffff168373ffffffffffffffffffffffffffffffffffffffff16036102c6576040517f08c379a00000000000000000000000000000000000000000000000000000000081526004016102bd90610c80565b60405180910390fd5b8073ffffffffffffffffffffffffffffffffffffffff163373ffffffffffffffffffffffffffffffffffffffff1614610334576040517f08c379a000000000000000000000000000000000000000000000000000000000815260040161032b90610d12565b60405180910390fd5b826003600084815260200190815260200160002060006101000a81548173ffffffffffffffffffffffffffffffffffffffff021916908373ffffffffffffffffffffffffffffffffffffffff160217905550818373ffffffffffffffffffffffffffffffffffffffff168273ffffffffffffffffffffffffffffffffffffffff167f8c5be1e5ebec7d5bd14f71427d1e84f3dd0314c0f7b2291e5b200ac8c7c3b92560405160405180910390a4505050565b6103f03382610610565b6103f957600080fd5b6104048383836106dd565b505050565b60008073ffffffffffffffffffffffffffffffffffffffff166001600084815260200190815260200160002060009054906101000a900473ffffffffffffffffffffffffffffffffffffffff1673ffffffffffffffffffffffffffffffffffffffff16036104ac576040517f08c379a00000000000000000000000000000000000000000000000000000000081526004016104a390610da4565b60405180910390fd5b6001600083815260200190815260200160002060009054906101000a900473ffffffffffffffffffffffffffffffffffffffff169050919050565b60008073ffffffffffffffffffffffffffffffffffffffff168273ffffffffffffffffffffffffffffffffffffffff1603610557576040517f08c379a000000000000000000000000000000000000000000000000000000000815260040161054e90610da4565b60405180910390fd5b600260008373ffffffffffffffffffffffffffffffffffffffff1673ffffffffffffffffffffffffffffffffffffffff168152602001908152602001600020549050919050565b6000806001600084815260200190815260200160002060009054906101000a900473ffffffffffffffffffffffffffffffffffffffff169050600073ffffffffffffffffffffffffffffffffffffffff168173ffffffffffffffffffffffffffffffffffffffff161415915050919050565b600061061b8261059e565b61065a576040517f08c379a000000000000000000000000000000000000000000000000000000000815260040161065190610c14565b60405180910390fd5b600061066583610409565b90508073ffffffffffffffffffffffffffffffffffffffff168473ffffffffffffffffffffffffffffffffffffffff1614806106d457508373ffffffffffffffffffffffffffffffffffffffff166106bc846101c6565b73ffffffffffffffffffffffffffffffffffffffff16145b91505092915050565b600073ffffffffffffffffffffffffffffffffffffffff168273ffffffffffffffffffffffffffffffffffffffff160361074c576040517f08c379a000000000000000000000000000000000000000000000000000000000815260040161074390610e36565b60405180910390fd5b8273ffffffffffffffffffffffffffffffffffffffff1661076c82610409565b73ffffffffffffffffffffffffffffffffffffffff16146107c2576040517f08c379a00000000000000000000000000000000000000000000000000000000081526004016107b990610eee565b60405180910390fd5b816001600083815260200190815260200160002060006101000a81548173ffffffffffffffffffffffffffffffffffffffff021916908373ffffffffffffffffffffffffffffffffffffffff1602179055506001600260008573ffffffffffffffffffffffffffffffffffffffff1673ffffffffffffffffffffffffffffffffffffffff16815260200190815260200160002060008282546108649190610f3d565b925050819055506001600260008473ffffffffffffffffffffffffffffffffffffffff1673ffffffffffffffffffffffffffffffffffffffff16815260200190815260200160002060008282546108bb9190610f71565b92505081905550808273ffffffffffffffffffffffffffffffffffffffff168473ffffffffffffffffffffffffffffffffffffffff167fddf252ad1be2c89b69c2b068fc378daa952ba7f163c4a11628f55a4df523b3ef60405160405180910390a4505050565b600080fd5b60007fffffffff0000000000000000000000000000000000000000000000000000000082169050919050565b61095c81610927565b811461096757600080fd5b50565b60008135905061097981610953565b92915050565b60006020828403121561099557610994610922565b5b60006109a38482850161096a565b91505092915050565b60008115159050919050565b6109c1816109ac565b82525050565b60006020820190506109dc60008301846109b8565b92915050565b6000819050919050565b6109f5816109e2565b8114610a0057600080fd5b50565b600081359050610a12816109ec565b92915050565b600060208284031215610a2e57610a2d610922565b5b6000610a3c84828501610a03565b91505092915050565b600073ffffffffffffffffffffffffffffffffffffffff82169050919050565b6000610a7082610a45565b9050919050565b610a8081610a65565b82525050565b6000602082019050610a9b6000830184610a77565b92915050565b610aaa81610a65565b8114610ab557600080fd5b50565b600081359050610ac781610aa1565b92915050565b60008060408385031215610ae457610ae3610922565b5b6000610af285828601610ab8565b9250506020610b0385828601610a03565b9150509250929050565b600080600060608486031215610b2657610b25610922565b5b6000610b3486828701610ab8565b9350506020610b4586828701610ab8565b9250506040610b5686828701610a03565b9150509250925092565b600060208284031215610b7657610b75610922565b5b6000610b8484828501610ab8565b91505092915050565b610b96816109e2565b82525050565b6000602082019050610bb16000830184610b8d565b92915050565b600082825260208201905092915050565b7f746f6b656e20646f6573206e6f74206578697374000000000000000000000000600082015250565b6000610bfe601483610bb7565b9150610c0982610bc8565b602082019050919050565b60006020820190508181036000830152610c2d81610bf1565b9050919050565b7f4572726f72202d20617070726f76616c2063757272656e74206f776e65720000600082015250565b6000610c6a601e83610bb7565b9150610c7582610c34565b602082019050919050565b60006020820190508181036000830152610c9981610c5d565b9050919050565b7f43757272656e742063616c6c6572206973206e6f7420746865206f776e65722060008201527f6f662074686520746f6b656e0000000000000000000000000000000000000000602082015250565b6000610cfc602c83610bb7565b9150610d0782610ca0565b604082019050919050565b60006020820190508181036000830152610d2b81610cef565b9050919050565b7f4f776e657220717565727920666f72206e6f6e2d6578697374656e7420746f6b60008201527f656e000000000000000000000000000000000000000000000000000000000000602082015250565b6000610d8e602283610bb7565b9150610d9982610d32565b604082019050919050565b60006020820190508181036000830152610dbd81610d81565b9050919050565b7f4552433237313a20746f6b656e2063616e6e6f74206265207472616e7366657260008201527f72656420746f20746865207a65726f2061646472657373000000000000000000602082015250565b6000610e20603783610bb7565b9150610e2b82610dc4565b604082019050919050565b60006020820190508181036000830152610e4f81610e13565b9050919050565b7f4552433237313a207468652066726f6d206164647265737320646f6573206e6f60008201527f74206f776e2074686520746f6b656e206265696e67207472616e73666572726560208201527f6400000000000000000000000000000000000000000000000000000000000000604082015250565b6000610ed8604183610bb7565b9150610ee382610e56565b606082019050919050565b60006020820190508181036000830152610f0781610ecb565b9050919050565b7f4e487b7100000000000000000000000000000000000000000000000000000000600052601160045260246000fd5b6000610f48826109e2565b9150610f53836109e2565b9250828203905081811115610f6b57610f6a610f0e565b5b92915050565b6000610f7c826109e2565b9150610f87836109e2565b9250828201905080821115610f9f57610f9e610f0e565b5b9291505056fea26469706673582212201179ab6f9e9fed5e8e84390ae77882fa5a817ebb28627b115dd2614e6ae9305664736f6c63430008110033",
  "immutableReferences": {},
  "source": "// SPDX-License-Identifier: MIT\r\npragma solidity ^0.8.0;\r\n\r\nimport './ERC165.sol';\r\nimport './interfaces/IERC721.sol';\r\n\r\n/*\r\nbuilding out the minting function:\r\n    a. nft to point to an address\r\n    b. keep track of the token ids\r\n    c. keep track of token owner addresses to token ids\r\n    d. keep track of how many tokens an owner address has\r\n    e. create an event that emits a transfer log- contract address \r\n    where it is being minted to, and the id.\r\n*/\r\n\r\ncontract ERC721 is ERC165, IERC721 {\r\n\r\n    /*event Transfer(\r\n        address indexed from, \r\n        address indexed to, \r\n        uint256 indexed tokenId\r\n    );\r\n\r\n    event Approval (\r\n        address indexed owner,\r\n        address indexed approved,\r\n        uint256 indexed tokenId\r\n    );*/\r\n\r\n    mapping(uint256 => address) private _tokenOwner;\r\n\r\n    mapping(address => uint256) private _OwnedTokensCount;\r\n\r\n    mapping(uint256 => address) private _tokenApprovals;\r\n\r\n    constructor() {\r\n        _registerInterface(bytes4(keccak256('balanceOf(address)') ^ keccak256('ownerOf(uint256)') ^\r\n        keccak256('transferFrom(address,address,uint256)')));\r\n    }\r\n  \r\n\r\n    function balanceOf(address _owner) public override view returns(uint256) {\r\n        require(_owner != address(0), 'Owner query for non-existent token');\r\n        return _OwnedTokensCount[_owner];\r\n    }\r\n\r\n    function ownerOf(uint256 _tokenId) public override view returns(address) {\r\n        require(_tokenOwner[_tokenId] != address(0), 'Owner query for non-existent token');\r\n        return _tokenOwner[_tokenId];\r\n    }\r\n\r\n    function _exists(uint256 tokenId) internal view returns(bool) {\r\n        address owner = _tokenOwner[tokenId];\r\n\r\n        return owner != address(0);\r\n    }\r\n\r\n    function _mint(address to, uint256 tokenId) internal virtual{\r\n        require(to != address(0),'ERC721: minting to the zero address');\r\n        //require(_tokenOwner[tokenId] == address(0));\r\n        require(!_exists(tokenId),'ER721: token already minted');\r\n        _tokenOwner[tokenId] = to;\r\n        _OwnedTokensCount[to] += 1;\r\n\r\n        emit Transfer(address(0), to, tokenId);\r\n    }\r\n\r\n    function _transferFrom(address _from, address _to, uint256 _tokenId) internal {\r\n        require(_to != address(0), 'ERC271: token cannot be transferred to the zero address');\r\n        require(ownerOf(_tokenId) == _from, 'ERC271: the from address does not own the token being transferred');\r\n        _tokenOwner[_tokenId] = _to;\r\n        _OwnedTokensCount[_from] -= 1;\r\n        _OwnedTokensCount[_to] += 1;\r\n\r\n        emit Transfer(_from, _to, _tokenId);\r\n\r\n    }\r\n\r\n    function transferFrom(address _from, address _to, uint256 _tokenId) override public {\r\n        require(isApprovedOrOwner(msg.sender, _tokenId));\r\n        _transferFrom(_from, _to, _tokenId);\r\n    }\r\n\r\n    function approve(address _to, uint256 _tokenId) override public {\r\n        address owner = ownerOf(_tokenId);\r\n        require(_to != owner, 'Error - approval current owner');\r\n        require(msg.sender == owner, 'Current caller is not the owner of the token');\r\n        _tokenApprovals[_tokenId] = _to;\r\n\r\n        emit Approval(owner, _to, _tokenId);\r\n    }\r\n\r\n    function getApproved(uint256 tokenId) public view returns(address)\r\n    {\r\n        require(_exists(tokenId), 'token does not exist');\r\n        return _tokenApprovals[tokenId];\r\n    }\r\n\r\n    function isApprovedOrOwner(address spender, uint256 tokenId) internal view returns(bool){\r\n        require(_exists(tokenId), 'token does not exist');\r\n        address owner = ownerOf(tokenId);\r\n        return (spender==owner) || (getApproved(tokenId) == spender);\r\n    }\r\n}\r\n",
  "sourcePath": "D:\\Programs\\nft-marketplace-starter-kit\\src\\contracts\\ERC721.sol",
  "compiler": {
    "name": "solc",
    "version": "0.8.17+commit.8df45f5f.Emscripten.clang"
  },
  "schemaVersion": "3.4.10",
  "updatedAt": "2022-10-30T13:30:21.637Z",
  "devdoc": {
    "kind": "dev",
    "methods": {
      "supportsInterface(bytes4)": {
        "details": "Interface identification is specified in ERC-165. This function  uses less than 30,000 gas.",
        "params": {
          "interfaceID": "The interface identifier, as specified in ERC-165"
        },
        "returns": {
          "_0": "`true` if the contract implements `interfaceID` and  `interfaceID` is not 0xffffffff, `false` otherwise"
        }
      }
    },
    "version": 1
  },
  "userdoc": {
    "kind": "user",
    "methods": {
      "supportsInterface(bytes4)": {
        "notice": "Query if a contract implements an interface"
      }
    },
    "version": 1
  }
}