{
  "contractName": "ERC721Connector",
  "abi": [
    {
      "inputs": [
        {
          "internalType": "string",
          "name": "name",
          "type": "string"
        },
        {
          "internalType": "string",
          "name": "symbol",
          "type": "string"
        }
      ],
      "stateMutability": "nonpayable",
      "type": "constructor"
    },
    {
      "anonymous": false,
      "inputs": [
        {
          "indexed": true,
          "internalType": "address",
          "name": "_owner",
          "type": "address"
        },
        {
          "indexed": true,
          "internalType": "address",
          "name": "_approved",
          "type": "address"
        },
        {
          "indexed": true,
          "internalType": "uint256",
          "name": "_tokenId",
          "type": "uint256"
        }
      ],
      "name": "Approval",
      "type": "event"
    },
    {
      "anonymous": false,
      "inputs": [
        {
          "indexed": true,
          "internalType": "address",
          "name": "_from",
          "type": "address"
        },
        {
          "indexed": true,
          "internalType": "address",
          "name": "_to",
          "type": "address"
        },
        {
          "indexed": true,
          "internalType": "uint256",
          "name": "_tokenId",
          "type": "uint256"
        }
      ],
      "name": "Transfer",
      "type": "event"
    },
    {
      "inputs": [
        {
          "internalType": "address",
          "name": "_to",
          "type": "address"
        },
        {
          "internalType": "uint256",
          "name": "_tokenId",
          "type": "uint256"
        }
      ],
      "name": "approve",
      "outputs": [],
      "stateMutability": "nonpayable",
      "type": "function"
    },
    {
      "inputs": [
        {
          "internalType": "address",
          "name": "_owner",
          "type": "address"
        }
      ],
      "name": "balanceOf",
      "outputs": [
        {
          "internalType": "uint256",
          "name": "",
          "type": "uint256"
        }
      ],
      "stateMutability": "view",
      "type": "function"
    },
    {
      "inputs": [
        {
          "internalType": "uint256",
          "name": "tokenId",
          "type": "uint256"
        }
      ],
      "name": "getApproved",
      "outputs": [
        {
          "internalType": "address",
          "name": "",
          "type": "address"
        }
      ],
      "stateMutability": "view",
      "type": "function"
    },
    {
      "inputs": [],
      "name": "name",
      "outputs": [
        {
          "internalType": "string",
          "name": "",
          "type": "string"
        }
      ],
      "stateMutability": "view",
      "type": "function"
    },
    {
      "inputs": [
        {
          "internalType": "uint256",
          "name": "_tokenId",
          "type": "uint256"
        }
      ],
      "name": "ownerOf",
      "outputs": [
        {
          "internalType": "address",
          "name": "",
          "type": "address"
        }
      ],
      "stateMutability": "view",
      "type": "function"
    },
    {
      "inputs": [
        {
          "internalType": "bytes4",
          "name": "interfaceID",
          "type": "bytes4"
        }
      ],
      "name": "supportsInterface",
      "outputs": [
        {
          "internalType": "bool",
          "name": "",
          "type": "bool"
        }
      ],
      "stateMutability": "view",
      "type": "function"
    },
    {
      "inputs": [],
      "name": "symbol",
      "outputs": [
        {
          "internalType": "string",
          "name": "",
          "type": "string"
        }
      ],
      "stateMutability": "view",
      "type": "function"
    },
    {
      "inputs": [
        {
          "internalType": "uint256",
          "name": "index",
          "type": "uint256"
        }
      ],
      "name": "tokenByIndex",
      "outputs": [
        {
          "internalType": "uint256",
          "name": "",
          "type": "uint256"
        }
      ],
      "stateMutability": "view",
      "type": "function"
    },
    {
      "inputs": [
        {
          "internalType": "address",
          "name": "owner",
          "type": "address"
        },
        {
          "internalType": "uint256",
          "name": "index",
          "type": "uint256"
        }
      ],
      "name": "tokenOfOwnerByIndex",
      "outputs": [
        {
          "internalType": "uint256",
          "name": "",
          "type": "uint256"
        }
      ],
      "stateMutability": "view",
      "type": "function"
    },
    {
      "inputs": [],
      "name": "totalSupply",
      "outputs": [
        {
          "internalType": "uint256",
          "name": "",
          "type": "uint256"
        }
      ],
      "stateMutability": "view",
      "type": "function"
    },
    {
      "inputs": [
        {
          "internalType": "address",
          "name": "_from",
          "type": "address"
        },
        {
          "internalType": "address",
          "name": "_to",
          "type": "address"
        },
        {
          "internalType": "uint256",
          "name": "_tokenId",
          "type": "uint256"
        }
      ],
      "name": "transferFrom",
      "outputs": [],
      "stateMutability": "nonpayable",
      "type": "function"
    }
  ],
  "bytecode": "0x60806040523480156200001157600080fd5b5060405162001ec138038062001ec183398181016040528101906200003791906200043f565b81816200006a7f01ffc9a7a5cef8baa21ed3c5c0d7e23accb804b619e9333b597f47a0d84076e2620001d560201b60201c565b620000bd7f95d89b41e2f5f391a79ec54e9d87c79d6e777c63e32c28da95b4e9e4a79250ec7f06fdde0383f15d582d1a74511486c9ddf862a882fb7904b3d9fe9b8b8e58a79618620001d560201b60201c565b8160019081620000ce91906200070f565b508060029081620000e091906200070f565b505050620001587f23b872dd7302113369cda2901243429419bec145408fa8b352b3dd92b66c680b7f6352211e6566aa027e75ac9dbf2423197fbd9b82b9d981a3ab367d355866aa1c7f70a08231b98ef4ca268c9cc3f6b4590e4bfec28280db06bb5d45e689f2a360be1818620001d560201b60201c565b620001cd7f2f745c59a57ba1667616e5a9707eeaa36ec97c283ee24190b75d9c8d14bcb2157f4f6ccce7c41aed90ec1f1887c4a821594c0f73758d8941d0ccaa2cde813b72987f18160ddd7f15c72528c2f94fd8dfe3c8d5aa26e2c50c7d81f4bc7bee8d4b79321818620001d560201b60201c565b505062000879565b63ffffffff60e01b817bffffffffffffffffffffffffffffffffffffffffffffffffffffffff19160362000240576040517f08c379a0000000000000000000000000000000000000000000000000000000008152600401620002379062000857565b60405180910390fd5b6001600080837bffffffffffffffffffffffffffffffffffffffffffffffffffffffff19167bffffffffffffffffffffffffffffffffffffffffffffffffffffffff1916815260200190815260200160002060006101000a81548160ff02191690831515021790555050565b6000604051905090565b600080fd5b600080fd5b600080fd5b600080fd5b6000601f19601f8301169050919050565b7f4e487b7100000000000000000000000000000000000000000000000000000000600052604160045260246000fd5b6200031582620002ca565b810181811067ffffffffffffffff82111715620003375762000336620002db565b5b80604052505050565b60006200034c620002ac565b90506200035a82826200030a565b919050565b600067ffffffffffffffff8211156200037d576200037c620002db565b5b6200038882620002ca565b9050602081019050919050565b60005b83811015620003b557808201518184015260208101905062000398565b60008484015250505050565b6000620003d8620003d2846200035f565b62000340565b905082815260208101848484011115620003f757620003f6620002c5565b5b6200040484828562000395565b509392505050565b600082601f830112620004245762000423620002c0565b5b815162000436848260208601620003c1565b91505092915050565b60008060408385031215620004595762000458620002b6565b5b600083015167ffffffffffffffff8111156200047a5762000479620002bb565b5b62000488858286016200040c565b925050602083015167ffffffffffffffff811115620004ac57620004ab620002bb565b5b620004ba858286016200040c565b9150509250929050565b600081519050919050565b7f4e487b7100000000000000000000000000000000000000000000000000000000600052602260045260246000fd5b600060028204905060018216806200051757607f821691505b6020821081036200052d576200052c620004cf565b5b50919050565b60008190508160005260206000209050919050565b60006020601f8301049050919050565b600082821b905092915050565b600060088302620005977fffffffffffffffffffffffffffffffffffffffffffffffffffffffffffffffff8262000558565b620005a3868362000558565b95508019841693508086168417925050509392505050565b6000819050919050565b6000819050919050565b6000620005f0620005ea620005e484620005bb565b620005c5565b620005bb565b9050919050565b6000819050919050565b6200060c83620005cf565b620006246200061b82620005f7565b84845462000565565b825550505050565b600090565b6200063b6200062c565b6200064881848462000601565b505050565b5b8181101562000670576200066460008262000631565b6001810190506200064e565b5050565b601f821115620006bf57620006898162000533565b620006948462000548565b81016020851015620006a4578190505b620006bc620006b38562000548565b8301826200064d565b50505b505050565b600082821c905092915050565b6000620006e460001984600802620006c4565b1980831691505092915050565b6000620006ff8383620006d1565b9150826002028217905092915050565b6200071a82620004c4565b67ffffffffffffffff811115620007365762000735620002db565b5b620007428254620004fe565b6200074f82828562000674565b600060209050601f83116001811462000787576000841562000772578287015190505b6200077e8582620006f1565b865550620007ee565b601f198416620007978662000533565b60005b82811015620007c1578489015182556001820191506020850194506020810190506200079a565b86831015620007e15784890151620007dd601f891682620006d1565b8355505b6001600288020188555050505b505050505050565b600082825260208201905092915050565b7f496e76616c696420696e74657266616365207265717565737400000000000000600082015250565b60006200083f601983620007f6565b91506200084c8262000807565b602082019050919050565b60006020820190508181036000830152620008728162000830565b9050919050565b61163880620008896000396000f3fe608060405234801561001057600080fd5b50600436106100a95760003560e01c806323b872dd1161007157806323b872dd146101665780632f745c59146101825780634f6ccce7146101b25780636352211e146101e257806370a082311461021257806395d89b4114610242576100a9565b806301ffc9a7146100ae57806306fdde03146100de578063081812fc146100fc578063095ea7b31461012c57806318160ddd14610148575b600080fd5b6100c860048036038101906100c39190610d68565b610260565b6040516100d59190610db0565b60405180910390f35b6100e66102c7565b6040516100f39190610e5b565b60405180910390f35b61011660048036038101906101119190610eb3565b610359565b6040516101239190610f21565b60405180910390f35b61014660048036038101906101419190610f68565b6103de565b005b610150610579565b60405161015d9190610fb7565b60405180910390f35b610180600480360381019061017b9190610fd2565b610586565b005b61019c60048036038101906101979190610f68565b6105a9565b6040516101a99190610fb7565b60405180910390f35b6101cc60048036038101906101c79190610eb3565b610659565b6040516101d99190610fb7565b60405180910390f35b6101fc60048036038101906101f79190610eb3565b6106ca565b6040516102099190610f21565b60405180910390f35b61022c60048036038101906102279190611025565b6107a8565b6040516102399190610fb7565b60405180910390f35b61024a610866565b6040516102579190610e5b565b60405180910390f35b6000806000837bffffffffffffffffffffffffffffffffffffffffffffffffffffffff19167bffffffffffffffffffffffffffffffffffffffffffffffffffffffff1916815260200190815260200160002060009054906101000a900460ff169050919050565b6060600180546102d690611081565b80601f016020809104026020016040519081016040528092919081815260200182805461030290611081565b801561034f5780601f106103245761010080835404028352916020019161034f565b820191906000526020600020905b81548152906001019060200180831161033257829003601f168201915b5050505050905090565b6000610364826108f8565b6103a3576040517f08c379a000000000000000000000000000000000000000000000000000000000815260040161039a906110fe565b60405180910390fd5b6005600083815260200190815260200160002060009054906101000a900473ffffffffffffffffffffffffffffffffffffffff169050919050565b60006103e9826106ca565b90508073ffffffffffffffffffffffffffffffffffffffff168373ffffffffffffffffffffffffffffffffffffffff1603610459576040517f08c379a00000000000000000000000000000000000000000000000000000000081526004016104509061116a565b60405180910390fd5b8073ffffffffffffffffffffffffffffffffffffffff163373ffffffffffffffffffffffffffffffffffffffff16146104c7576040517f08c379a00000000000000000000000000000000000000000000000000000000081526004016104be906111fc565b60405180910390fd5b826005600084815260200190815260200160002060006101000a81548173ffffffffffffffffffffffffffffffffffffffff021916908373ffffffffffffffffffffffffffffffffffffffff160217905550818373ffffffffffffffffffffffffffffffffffffffff168273ffffffffffffffffffffffffffffffffffffffff167f8c5be1e5ebec7d5bd14f71427d1e84f3dd0314c0f7b2291e5b200ac8c7c3b92560405160405180910390a4505050565b6000600680549050905090565b610590338261096a565b61059957600080fd5b6105a4838383610a37565b505050565b60006105b4836107a8565b82106105f5576040517f08c379a00000000000000000000000000000000000000000000000000000000081526004016105ec90611268565b60405180910390fd5b600860008473ffffffffffffffffffffffffffffffffffffffff1673ffffffffffffffffffffffffffffffffffffffff168152602001908152602001600020828154811061064657610645611288565b5b9060005260206000200154905092915050565b6000610663610579565b82106106a4576040517f08c379a000000000000000000000000000000000000000000000000000000000815260040161069b90611303565b60405180910390fd5b600682815481106106b8576106b7611288565b5b90600052602060002001549050919050565b60008073ffffffffffffffffffffffffffffffffffffffff166003600084815260200190815260200160002060009054906101000a900473ffffffffffffffffffffffffffffffffffffffff1673ffffffffffffffffffffffffffffffffffffffff160361076d576040517f08c379a000000000000000000000000000000000000000000000000000000000815260040161076490611395565b60405180910390fd5b6003600083815260200190815260200160002060009054906101000a900473ffffffffffffffffffffffffffffffffffffffff169050919050565b60008073ffffffffffffffffffffffffffffffffffffffff168273ffffffffffffffffffffffffffffffffffffffff1603610818576040517f08c379a000000000000000000000000000000000000000000000000000000000815260040161080f90611395565b60405180910390fd5b61085f600460008473ffffffffffffffffffffffffffffffffffffffff1673ffffffffffffffffffffffffffffffffffffffff168152602001908152602001600020610c5c565b9050919050565b60606002805461087590611081565b80601f01602080910402602001604051908101604052809291908181526020018280546108a190611081565b80156108ee5780601f106108c3576101008083540402835291602001916108ee565b820191906000526020600020905b8154815290600101906020018083116108d157829003601f168201915b5050505050905090565b6000806003600084815260200190815260200160002060009054906101000a900473ffffffffffffffffffffffffffffffffffffffff169050600073ffffffffffffffffffffffffffffffffffffffff168173ffffffffffffffffffffffffffffffffffffffff161415915050919050565b6000610975826108f8565b6109b4576040517f08c379a00000000000000000000000000000000000000000000000000000000081526004016109ab906110fe565b60405180910390fd5b60006109bf836106ca565b90508073ffffffffffffffffffffffffffffffffffffffff168473ffffffffffffffffffffffffffffffffffffffff161480610a2e57508373ffffffffffffffffffffffffffffffffffffffff16610a1684610359565b73ffffffffffffffffffffffffffffffffffffffff16145b91505092915050565b600073ffffffffffffffffffffffffffffffffffffffff168273ffffffffffffffffffffffffffffffffffffffff1603610aa6576040517f08c379a0000000000000000000000000000000000000000000000000000000008152600401610a9d90611427565b60405180910390fd5b8273ffffffffffffffffffffffffffffffffffffffff16610ac6826106ca565b73ffffffffffffffffffffffffffffffffffffffff1614610b1c576040517f08c379a0000000000000000000000000000000000000000000000000000000008152600401610b13906114df565b60405180910390fd5b816003600083815260200190815260200160002060006101000a81548173ffffffffffffffffffffffffffffffffffffffff021916908373ffffffffffffffffffffffffffffffffffffffff160217905550610bb5600460008573ffffffffffffffffffffffffffffffffffffffff1673ffffffffffffffffffffffffffffffffffffffff168152602001908152602001600020610c6a565b610bfc600460008473ffffffffffffffffffffffffffffffffffffffff1673ffffffffffffffffffffffffffffffffffffffff168152602001908152602001600020610c8d565b808273ffffffffffffffffffffffffffffffffffffffff168473ffffffffffffffffffffffffffffffffffffffff167fddf252ad1be2c89b69c2b068fc378daa952ba7f163c4a11628f55a4df523b3ef60405160405180910390a4505050565b600081600001549050919050565b610c8260018260000154610cac90919063ffffffff16565b816000018190555050565b6001816000016000828254610ca2919061152e565b9250508190555050565b600082821115610cf1576040517f08c379a0000000000000000000000000000000000000000000000000000000008152600401610ce8906115ae565b60405180910390fd5b60008284610cff91906115ce565b90508091505092915050565b600080fd5b60007fffffffff0000000000000000000000000000000000000000000000000000000082169050919050565b610d4581610d10565b8114610d5057600080fd5b50565b600081359050610d6281610d3c565b92915050565b600060208284031215610d7e57610d7d610d0b565b5b6000610d8c84828501610d53565b91505092915050565b60008115159050919050565b610daa81610d95565b82525050565b6000602082019050610dc56000830184610da1565b92915050565b600081519050919050565b600082825260208201905092915050565b60005b83811015610e05578082015181840152602081019050610dea565b60008484015250505050565b6000601f19601f8301169050919050565b6000610e2d82610dcb565b610e378185610dd6565b9350610e47818560208601610de7565b610e5081610e11565b840191505092915050565b60006020820190508181036000830152610e758184610e22565b905092915050565b6000819050919050565b610e9081610e7d565b8114610e9b57600080fd5b50565b600081359050610ead81610e87565b92915050565b600060208284031215610ec957610ec8610d0b565b5b6000610ed784828501610e9e565b91505092915050565b600073ffffffffffffffffffffffffffffffffffffffff82169050919050565b6000610f0b82610ee0565b9050919050565b610f1b81610f00565b82525050565b6000602082019050610f366000830184610f12565b92915050565b610f4581610f00565b8114610f5057600080fd5b50565b600081359050610f6281610f3c565b92915050565b60008060408385031215610f7f57610f7e610d0b565b5b6000610f8d85828601610f53565b9250506020610f9e85828601610e9e565b9150509250929050565b610fb181610e7d565b82525050565b6000602082019050610fcc6000830184610fa8565b92915050565b600080600060608486031215610feb57610fea610d0b565b5b6000610ff986828701610f53565b935050602061100a86828701610f53565b925050604061101b86828701610e9e565b9150509250925092565b60006020828403121561103b5761103a610d0b565b5b600061104984828501610f53565b91505092915050565b7f4e487b7100000000000000000000000000000000000000000000000000000000600052602260045260246000fd5b6000600282049050600182168061109957607f821691505b6020821081036110ac576110ab611052565b5b50919050565b7f746f6b656e20646f6573206e6f74206578697374000000000000000000000000600082015250565b60006110e8601483610dd6565b91506110f3826110b2565b602082019050919050565b60006020820190508181036000830152611117816110db565b9050919050565b7f4572726f72202d20617070726f76616c2063757272656e74206f776e65720000600082015250565b6000611154601e83610dd6565b915061115f8261111e565b602082019050919050565b6000602082019050818103600083015261118381611147565b9050919050565b7f43757272656e742063616c6c6572206973206e6f7420746865206f776e65722060008201527f6f662074686520746f6b656e0000000000000000000000000000000000000000602082015250565b60006111e6602c83610dd6565b91506111f18261118a565b604082019050919050565b60006020820190508181036000830152611215816111d9565b9050919050565b7f6f776e657220696e646578206973206f7574206f6620626f756e647300000000600082015250565b6000611252601c83610dd6565b915061125d8261121c565b602082019050919050565b6000602082019050818103600083015261128181611245565b9050919050565b7f4e487b7100000000000000000000000000000000000000000000000000000000600052603260045260246000fd5b7f676c6f62616c20696e646578206973206f7574206f6620626f756e6473000000600082015250565b60006112ed601d83610dd6565b91506112f8826112b7565b602082019050919050565b6000602082019050818103600083015261131c816112e0565b9050919050565b7f4f776e657220717565727920666f72206e6f6e2d6578697374656e7420746f6b60008201527f656e000000000000000000000000000000000000000000000000000000000000602082015250565b600061137f602283610dd6565b915061138a82611323565b604082019050919050565b600060208201905081810360008301526113ae81611372565b9050919050565b7f4552433237313a20746f6b656e2063616e6e6f74206265207472616e7366657260008201527f72656420746f20746865207a65726f2061646472657373000000000000000000602082015250565b6000611411603783610dd6565b915061141c826113b5565b604082019050919050565b6000602082019050818103600083015261144081611404565b9050919050565b7f4552433237313a207468652066726f6d206164647265737320646f6573206e6f60008201527f74206f776e2074686520746f6b656e206265696e67207472616e73666572726560208201527f6400000000000000000000000000000000000000000000000000000000000000604082015250565b60006114c9604183610dd6565b91506114d482611447565b606082019050919050565b600060208201905081810360008301526114f8816114bc565b9050919050565b7f4e487b7100000000000000000000000000000000000000000000000000000000600052601160045260246000fd5b600061153982610e7d565b915061154483610e7d565b925082820190508082111561155c5761155b6114ff565b5b92915050565b7f536166654d6174683a205375627472616374696f6e204f766572666c6f770000600082015250565b6000611598601e83610dd6565b91506115a382611562565b602082019050919050565b600060208201905081810360008301526115c78161158b565b9050919050565b60006115d982610e7d565b91506115e483610e7d565b92508282039050818111156115fc576115fb6114ff565b5b9291505056fea26469706673582212204dbf13a5b76a08001e9d65a455031301f2739f3d27424f6ea4a14f703e47707f64736f6c63430008110033",
  "immutableReferences": {},
  "source": "// SPDX-License-Identifier: MIT\r\npragma solidity ^0.8.0;\r\n\r\nimport './ERC721Metadata.sol';\r\nimport './ERC721Enumerable.sol';\r\n\r\ncontract ERC721Connector is ERC721Metadata, ERC721Enumerable {\r\n\r\n    constructor(string memory name, string memory symbol) ERC721Metadata(name, symbol) {\r\n\r\n    }\r\n}",
  "sourcePath": "D:\\Programs\\nft-marketplace-starter-kit\\src\\contracts\\ERC721Connector.sol",
  "compiler": {
    "name": "solc",
    "version": "0.8.17+commit.8df45f5f.Emscripten.clang"
  },
  "schemaVersion": "3.4.10",
  "updatedAt": "2022-11-13T17:42:51.193Z",
  "devdoc": {
    "kind": "dev",
    "methods": {
      "supportsInterface(bytes4)": {
        "details": "Interface identification is specified in ERC-165. This function  uses less than 30,000 gas.",
        "params": {
          "interfaceID": "The interface identifier, as specified in ERC-165"
        },
        "returns": {
          "_0": "`true` if the contract implements `interfaceID` and  `interfaceID` is not 0xffffffff, `false` otherwise"
        }
      }
    },
    "version": 1
  },
  "userdoc": {
    "kind": "user",
    "methods": {
      "supportsInterface(bytes4)": {
        "notice": "Query if a contract implements an interface"
      }
    },
    "version": 1
  }
}