{
  "contractName": "ERC721Enumerable",
  "abi": [
    {
      "anonymous": false,
      "inputs": [
        {
          "indexed": true,
          "internalType": "address",
          "name": "from",
          "type": "address"
        },
        {
          "indexed": true,
          "internalType": "address",
          "name": "to",
          "type": "address"
        },
        {
          "indexed": true,
          "internalType": "uint256",
          "name": "tokenId",
          "type": "uint256"
        }
      ],
      "name": "Transfer",
      "type": "event"
    },
    {
      "inputs": [
        {
          "internalType": "address",
          "name": "_owner",
          "type": "address"
        }
      ],
      "name": "balanceOf",
      "outputs": [
        {
          "internalType": "uint256",
          "name": "",
          "type": "uint256"
        }
      ],
      "stateMutability": "view",
      "type": "function"
    },
    {
      "inputs": [
        {
          "internalType": "uint256",
          "name": "_tokenId",
          "type": "uint256"
        }
      ],
      "name": "ownerOf",
      "outputs": [
        {
          "internalType": "address",
          "name": "",
          "type": "address"
        }
      ],
      "stateMutability": "view",
      "type": "function"
    },
    {
      "inputs": [
        {
          "internalType": "uint256",
          "name": "index",
          "type": "uint256"
        }
      ],
      "name": "tokenByIndex",
      "outputs": [
        {
          "internalType": "uint256",
          "name": "",
          "type": "uint256"
        }
      ],
      "stateMutability": "view",
      "type": "function"
    },
    {
      "inputs": [
        {
          "internalType": "address",
          "name": "owner",
          "type": "address"
        },
        {
          "internalType": "uint256",
          "name": "index",
          "type": "uint256"
        }
      ],
      "name": "tokenOfOwnerByIndex",
      "outputs": [
        {
          "internalType": "uint256",
          "name": "",
          "type": "uint256"
        }
      ],
      "stateMutability": "view",
      "type": "function"
    },
    {
      "inputs": [],
      "name": "totalSupply",
      "outputs": [
        {
          "internalType": "uint256",
          "name": "",
          "type": "uint256"
        }
      ],
      "stateMutability": "view",
      "type": "function"
    }
  ],
  "bytecode": "0x608060405234801561001057600080fd5b50610762806100206000396000f3fe608060405234801561001057600080fd5b50600436106100575760003560e01c806318160ddd1461005c5780632f745c591461007a5780634f6ccce7146100aa5780636352211e146100da57806370a082311461010a575b600080fd5b61006461013a565b6040516100719190610414565b60405180910390f35b610094600480360381019061008f91906104be565b610147565b6040516100a19190610414565b60405180910390f35b6100c460048036038101906100bf91906104fe565b6101f7565b6040516100d19190610414565b60405180910390f35b6100f460048036038101906100ef91906104fe565b610268565b604051610101919061053a565b60405180910390f35b610124600480360381019061011f9190610555565b610344565b6040516101319190610414565b60405180910390f35b6000600280549050905090565b600061015283610344565b8210610193576040517f08c379a000000000000000000000000000000000000000000000000000000000815260040161018a906105df565b60405180910390fd5b600460008473ffffffffffffffffffffffffffffffffffffffff1673ffffffffffffffffffffffffffffffffffffffff16815260200190815260200160002082815481106101e4576101e36105ff565b5b9060005260206000200154905092915050565b600061020161013a565b8210610242576040517f08c379a00000000000000000000000000000000000000000000000000000000081526004016102399061067a565b60405180910390fd5b60028281548110610256576102556105ff565b5b90600052602060002001549050919050565b60008073ffffffffffffffffffffffffffffffffffffffff1660008084815260200190815260200160002060009054906101000a900473ffffffffffffffffffffffffffffffffffffffff1673ffffffffffffffffffffffffffffffffffffffff160361030a576040517f08c379a00000000000000000000000000000000000000000000000000000000081526004016103019061070c565b60405180910390fd5b60008083815260200190815260200160002060009054906101000a900473ffffffffffffffffffffffffffffffffffffffff169050919050565b60008073ffffffffffffffffffffffffffffffffffffffff168273ffffffffffffffffffffffffffffffffffffffff16036103b4576040517f08c379a00000000000000000000000000000000000000000000000000000000081526004016103ab9061070c565b60405180910390fd5b600160008373ffffffffffffffffffffffffffffffffffffffff1673ffffffffffffffffffffffffffffffffffffffff168152602001908152602001600020549050919050565b6000819050919050565b61040e816103fb565b82525050565b60006020820190506104296000830184610405565b92915050565b600080fd5b600073ffffffffffffffffffffffffffffffffffffffff82169050919050565b600061045f82610434565b9050919050565b61046f81610454565b811461047a57600080fd5b50565b60008135905061048c81610466565b92915050565b61049b816103fb565b81146104a657600080fd5b50565b6000813590506104b881610492565b92915050565b600080604083850312156104d5576104d461042f565b5b60006104e38582860161047d565b92505060206104f4858286016104a9565b9150509250929050565b6000602082840312156105145761051361042f565b5b6000610522848285016104a9565b91505092915050565b61053481610454565b82525050565b600060208201905061054f600083018461052b565b92915050565b60006020828403121561056b5761056a61042f565b5b60006105798482850161047d565b91505092915050565b600082825260208201905092915050565b7f6f776e657220696e646578206973206f7574206f6620626f756e647300000000600082015250565b60006105c9601c83610582565b91506105d482610593565b602082019050919050565b600060208201905081810360008301526105f8816105bc565b9050919050565b7f4e487b7100000000000000000000000000000000000000000000000000000000600052603260045260246000fd5b7f676c6f62616c20696e646578206973206f7574206f6620626f756e6473000000600082015250565b6000610664601d83610582565b915061066f8261062e565b602082019050919050565b6000602082019050818103600083015261069381610657565b9050919050565b7f4f776e657220717565727920666f72206e6f6e2d6578697374656e7420746f6b60008201527f656e000000000000000000000000000000000000000000000000000000000000602082015250565b60006106f6602283610582565b91506107018261069a565b604082019050919050565b60006020820190508181036000830152610725816106e9565b905091905056fea26469706673582212202c762cd4fdc769c126e12ab6160d9d445cdf586cf792f29b4d395c938f10101164736f6c63430008110033",
  "immutableReferences": {},
  "source": "// SPDX-License-Identifier: MIT\r\npragma solidity ^0.8.0;\r\n\r\nimport './ERC721.sol';\r\n\r\ncontract ERC721Enumerable is ERC721 {\r\n\r\n    uint256[] private _allTokens;\r\n\r\n    //mapping from tokenId to position in _allTokens array\r\n    mapping(uint256 => uint256) private _allTokensIndex;\r\n\r\n    //mapping of owner to list of all owner token id\r\n    mapping(address => uint256[]) private _ownedTokens;\r\n\r\n    //mapping from tokenId to index of the owner tokens list\r\n    mapping(uint256 => uint256) private _ownedTokensIndex;\r\n\r\n    //function tokenByIndex(uint256 _index) external view returns(uint256);\r\n\r\n    //function tokenOfOwnerByIndex(address _owner, uint256 _index) external view returns (uint256);\r\n\r\n    function _mint(address to, uint256 tokenId) internal override(ERC721) {\r\n        super._mint(to, tokenId);\r\n\r\n        _addTokensToAllTokenEnumeration(tokenId);\r\n        _addTokensToOwnerEnumeration(to, tokenId);\r\n\r\n    }\r\n\r\n    function _addTokensToAllTokenEnumeration(uint256 tokenId) private {\r\n        _allTokensIndex[tokenId] = _allTokens.length;\r\n        _allTokens.push(tokenId);\r\n        \r\n    }\r\n\r\n    function _addTokensToOwnerEnumeration(address to, uint256 tokenId) private {\r\n        _ownedTokensIndex[tokenId] = _ownedTokens[to].length;\r\n        _ownedTokens[to].push(tokenId);        \r\n    }\r\n\r\n    function tokenByIndex(uint256 index) public view returns(uint256) {\r\n        require(index < totalSupply(), 'global index is out of bounds');\r\n        return _allTokens[index];\r\n    }\r\n\r\n    function tokenOfOwnerByIndex(address owner, uint256 index) public view returns(uint256)\r\n    {\r\n        require(index < balanceOf(owner),'owner index is out of bounds');\r\n        return _ownedTokens[owner][index];\r\n    }\r\n   \r\n\r\n    function totalSupply() public view returns (uint256){\r\n        return _allTokens.length;\r\n    }\r\n\r\n}",
  "sourcePath": "D:\\Programs\\nft-marketplace-starter-kit\\src\\contracts\\ERC721Enumerable.sol",
  "compiler": {
    "name": "solc",
    "version": "0.8.17+commit.8df45f5f.Emscripten.clang"
  },
  "schemaVersion": "3.4.10",
  "updatedAt": "2022-10-23T14:00:38.982Z",
  "devdoc": {
    "kind": "dev",
    "methods": {},
    "version": 1
  },
  "userdoc": {
    "kind": "user",
    "methods": {},
    "version": 1
  }
}