{
  "contractName": "ERC721Enumerable",
  "abi": [
    {
      "anonymous": false,
      "inputs": [
        {
          "indexed": true,
          "internalType": "address",
          "name": "owner",
          "type": "address"
        },
        {
          "indexed": true,
          "internalType": "address",
          "name": "approved",
          "type": "address"
        },
        {
          "indexed": true,
          "internalType": "uint256",
          "name": "tokenId",
          "type": "uint256"
        }
      ],
      "name": "Approval",
      "type": "event"
    },
    {
      "anonymous": false,
      "inputs": [
        {
          "indexed": true,
          "internalType": "address",
          "name": "from",
          "type": "address"
        },
        {
          "indexed": true,
          "internalType": "address",
          "name": "to",
          "type": "address"
        },
        {
          "indexed": true,
          "internalType": "uint256",
          "name": "tokenId",
          "type": "uint256"
        }
      ],
      "name": "Transfer",
      "type": "event"
    },
    {
      "inputs": [
        {
          "internalType": "address",
          "name": "_to",
          "type": "address"
        },
        {
          "internalType": "uint256",
          "name": "_tokenId",
          "type": "uint256"
        }
      ],
      "name": "approve",
      "outputs": [],
      "stateMutability": "nonpayable",
      "type": "function"
    },
    {
      "inputs": [
        {
          "internalType": "address",
          "name": "_owner",
          "type": "address"
        }
      ],
      "name": "balanceOf",
      "outputs": [
        {
          "internalType": "uint256",
          "name": "",
          "type": "uint256"
        }
      ],
      "stateMutability": "view",
      "type": "function"
    },
    {
      "inputs": [
        {
          "internalType": "uint256",
          "name": "tokenId",
          "type": "uint256"
        }
      ],
      "name": "getApproved",
      "outputs": [
        {
          "internalType": "address",
          "name": "",
          "type": "address"
        }
      ],
      "stateMutability": "view",
      "type": "function"
    },
    {
      "inputs": [
        {
          "internalType": "uint256",
          "name": "_tokenId",
          "type": "uint256"
        }
      ],
      "name": "ownerOf",
      "outputs": [
        {
          "internalType": "address",
          "name": "",
          "type": "address"
        }
      ],
      "stateMutability": "view",
      "type": "function"
    },
    {
      "inputs": [
        {
          "internalType": "address",
          "name": "_from",
          "type": "address"
        },
        {
          "internalType": "address",
          "name": "_to",
          "type": "address"
        },
        {
          "internalType": "uint256",
          "name": "_tokenId",
          "type": "uint256"
        }
      ],
      "name": "transferFrom",
      "outputs": [],
      "stateMutability": "nonpayable",
      "type": "function"
    },
    {
      "inputs": [
        {
          "internalType": "uint256",
          "name": "index",
          "type": "uint256"
        }
      ],
      "name": "tokenByIndex",
      "outputs": [
        {
          "internalType": "uint256",
          "name": "",
          "type": "uint256"
        }
      ],
      "stateMutability": "view",
      "type": "function"
    },
    {
      "inputs": [
        {
          "internalType": "address",
          "name": "owner",
          "type": "address"
        },
        {
          "internalType": "uint256",
          "name": "index",
          "type": "uint256"
        }
      ],
      "name": "tokenOfOwnerByIndex",
      "outputs": [
        {
          "internalType": "uint256",
          "name": "",
          "type": "uint256"
        }
      ],
      "stateMutability": "view",
      "type": "function"
    },
    {
      "inputs": [],
      "name": "totalSupply",
      "outputs": [
        {
          "internalType": "uint256",
          "name": "",
          "type": "uint256"
        }
      ],
      "stateMutability": "view",
      "type": "function"
    }
  ],
  "bytecode": "0x608060405234801561001057600080fd5b5061115c806100206000396000f3fe608060405234801561001057600080fd5b50600436106100885760003560e01c80632f745c591161005b5780632f745c59146101135780634f6ccce7146101435780636352211e1461017357806370a08231146101a357610088565b8063081812fc1461008d578063095ea7b3146100bd57806318160ddd146100d957806323b872dd146100f7575b600080fd5b6100a760048036038101906100a29190610a92565b6101d3565b6040516100b49190610b00565b60405180910390f35b6100d760048036038101906100d29190610b47565b610258565b005b6100e16103f3565b6040516100ee9190610b96565b60405180910390f35b610111600480360381019061010c9190610bb1565b610400565b005b61012d60048036038101906101289190610b47565b610423565b60405161013a9190610b96565b60405180910390f35b61015d60048036038101906101589190610a92565b6104d3565b60405161016a9190610b96565b60405180910390f35b61018d60048036038101906101889190610a92565b610544565b60405161019a9190610b00565b60405180910390f35b6101bd60048036038101906101b89190610c04565b610620565b6040516101ca9190610b96565b60405180910390f35b60006101de826106d7565b61021d576040517f08c379a000000000000000000000000000000000000000000000000000000000815260040161021490610c8e565b60405180910390fd5b6002600083815260200190815260200160002060009054906101000a900473ffffffffffffffffffffffffffffffffffffffff169050919050565b600061026382610544565b90508073ffffffffffffffffffffffffffffffffffffffff168373ffffffffffffffffffffffffffffffffffffffff16036102d3576040517f08c379a00000000000000000000000000000000000000000000000000000000081526004016102ca90610cfa565b60405180910390fd5b8073ffffffffffffffffffffffffffffffffffffffff163373ffffffffffffffffffffffffffffffffffffffff1614610341576040517f08c379a000000000000000000000000000000000000000000000000000000000815260040161033890610d8c565b60405180910390fd5b826002600084815260200190815260200160002060006101000a81548173ffffffffffffffffffffffffffffffffffffffff021916908373ffffffffffffffffffffffffffffffffffffffff160217905550818373ffffffffffffffffffffffffffffffffffffffff168273ffffffffffffffffffffffffffffffffffffffff167f8c5be1e5ebec7d5bd14f71427d1e84f3dd0314c0f7b2291e5b200ac8c7c3b92560405160405180910390a4505050565b6000600380549050905090565b61040a3382610748565b61041357600080fd5b61041e838383610815565b505050565b600061042e83610620565b821061046f576040517f08c379a000000000000000000000000000000000000000000000000000000000815260040161046690610df8565b60405180910390fd5b600560008473ffffffffffffffffffffffffffffffffffffffff1673ffffffffffffffffffffffffffffffffffffffff16815260200190815260200160002082815481106104c0576104bf610e18565b5b9060005260206000200154905092915050565b60006104dd6103f3565b821061051e576040517f08c379a000000000000000000000000000000000000000000000000000000000815260040161051590610e93565b60405180910390fd5b6003828154811061053257610531610e18565b5b90600052602060002001549050919050565b60008073ffffffffffffffffffffffffffffffffffffffff1660008084815260200190815260200160002060009054906101000a900473ffffffffffffffffffffffffffffffffffffffff1673ffffffffffffffffffffffffffffffffffffffff16036105e6576040517f08c379a00000000000000000000000000000000000000000000000000000000081526004016105dd90610f25565b60405180910390fd5b60008083815260200190815260200160002060009054906101000a900473ffffffffffffffffffffffffffffffffffffffff169050919050565b60008073ffffffffffffffffffffffffffffffffffffffff168273ffffffffffffffffffffffffffffffffffffffff1603610690576040517f08c379a000000000000000000000000000000000000000000000000000000000815260040161068790610f25565b60405180910390fd5b600160008373ffffffffffffffffffffffffffffffffffffffff1673ffffffffffffffffffffffffffffffffffffffff168152602001908152602001600020549050919050565b60008060008084815260200190815260200160002060009054906101000a900473ffffffffffffffffffffffffffffffffffffffff169050600073ffffffffffffffffffffffffffffffffffffffff168173ffffffffffffffffffffffffffffffffffffffff161415915050919050565b6000610753826106d7565b610792576040517f08c379a000000000000000000000000000000000000000000000000000000000815260040161078990610c8e565b60405180910390fd5b600061079d83610544565b90508073ffffffffffffffffffffffffffffffffffffffff168473ffffffffffffffffffffffffffffffffffffffff16148061080c57508373ffffffffffffffffffffffffffffffffffffffff166107f4846101d3565b73ffffffffffffffffffffffffffffffffffffffff16145b91505092915050565b600073ffffffffffffffffffffffffffffffffffffffff168273ffffffffffffffffffffffffffffffffffffffff1603610884576040517f08c379a000000000000000000000000000000000000000000000000000000000815260040161087b90610fb7565b60405180910390fd5b8273ffffffffffffffffffffffffffffffffffffffff166108a482610544565b73ffffffffffffffffffffffffffffffffffffffff16146108fa576040517f08c379a00000000000000000000000000000000000000000000000000000000081526004016108f19061106f565b60405180910390fd5b8160008083815260200190815260200160002060006101000a81548173ffffffffffffffffffffffffffffffffffffffff021916908373ffffffffffffffffffffffffffffffffffffffff16021790555060018060008573ffffffffffffffffffffffffffffffffffffffff1673ffffffffffffffffffffffffffffffffffffffff168152602001908152602001600020600082825461099a91906110be565b9250508190555060018060008473ffffffffffffffffffffffffffffffffffffffff1673ffffffffffffffffffffffffffffffffffffffff16815260200190815260200160002060008282546109f091906110f2565b92505081905550808273ffffffffffffffffffffffffffffffffffffffff168473ffffffffffffffffffffffffffffffffffffffff167fddf252ad1be2c89b69c2b068fc378daa952ba7f163c4a11628f55a4df523b3ef60405160405180910390a4505050565b600080fd5b6000819050919050565b610a6f81610a5c565b8114610a7a57600080fd5b50565b600081359050610a8c81610a66565b92915050565b600060208284031215610aa857610aa7610a57565b5b6000610ab684828501610a7d565b91505092915050565b600073ffffffffffffffffffffffffffffffffffffffff82169050919050565b6000610aea82610abf565b9050919050565b610afa81610adf565b82525050565b6000602082019050610b156000830184610af1565b92915050565b610b2481610adf565b8114610b2f57600080fd5b50565b600081359050610b4181610b1b565b92915050565b60008060408385031215610b5e57610b5d610a57565b5b6000610b6c85828601610b32565b9250506020610b7d85828601610a7d565b9150509250929050565b610b9081610a5c565b82525050565b6000602082019050610bab6000830184610b87565b92915050565b600080600060608486031215610bca57610bc9610a57565b5b6000610bd886828701610b32565b9350506020610be986828701610b32565b9250506040610bfa86828701610a7d565b9150509250925092565b600060208284031215610c1a57610c19610a57565b5b6000610c2884828501610b32565b91505092915050565b600082825260208201905092915050565b7f746f6b656e20646f6573206e6f74206578697374000000000000000000000000600082015250565b6000610c78601483610c31565b9150610c8382610c42565b602082019050919050565b60006020820190508181036000830152610ca781610c6b565b9050919050565b7f4572726f72202d20617070726f76616c2063757272656e74206f776e65720000600082015250565b6000610ce4601e83610c31565b9150610cef82610cae565b602082019050919050565b60006020820190508181036000830152610d1381610cd7565b9050919050565b7f43757272656e742063616c6c6572206973206e6f7420746865206f776e65722060008201527f6f662074686520746f6b656e0000000000000000000000000000000000000000602082015250565b6000610d76602c83610c31565b9150610d8182610d1a565b604082019050919050565b60006020820190508181036000830152610da581610d69565b9050919050565b7f6f776e657220696e646578206973206f7574206f6620626f756e647300000000600082015250565b6000610de2601c83610c31565b9150610ded82610dac565b602082019050919050565b60006020820190508181036000830152610e1181610dd5565b9050919050565b7f4e487b7100000000000000000000000000000000000000000000000000000000600052603260045260246000fd5b7f676c6f62616c20696e646578206973206f7574206f6620626f756e6473000000600082015250565b6000610e7d601d83610c31565b9150610e8882610e47565b602082019050919050565b60006020820190508181036000830152610eac81610e70565b9050919050565b7f4f776e657220717565727920666f72206e6f6e2d6578697374656e7420746f6b60008201527f656e000000000000000000000000000000000000000000000000000000000000602082015250565b6000610f0f602283610c31565b9150610f1a82610eb3565b604082019050919050565b60006020820190508181036000830152610f3e81610f02565b9050919050565b7f4552433237313a20746f6b656e2063616e6e6f74206265207472616e7366657260008201527f72656420746f20746865207a65726f2061646472657373000000000000000000602082015250565b6000610fa1603783610c31565b9150610fac82610f45565b604082019050919050565b60006020820190508181036000830152610fd081610f94565b9050919050565b7f4552433237313a207468652066726f6d206164647265737320646f6573206e6f60008201527f74206f776e2074686520746f6b656e206265696e67207472616e73666572726560208201527f6400000000000000000000000000000000000000000000000000000000000000604082015250565b6000611059604183610c31565b915061106482610fd7565b606082019050919050565b600060208201905081810360008301526110888161104c565b9050919050565b7f4e487b7100000000000000000000000000000000000000000000000000000000600052601160045260246000fd5b60006110c982610a5c565b91506110d483610a5c565b92508282039050818111156110ec576110eb61108f565b5b92915050565b60006110fd82610a5c565b915061110883610a5c565b92508282019050808211156111205761111f61108f565b5b9291505056fea26469706673582212204a2064779e81718b4b25a027b677f3b5f2e4db0eb5ec5803a92b5393ce32fa3564736f6c63430008110033",
  "immutableReferences": {},
  "source": "// SPDX-License-Identifier: MIT\r\npragma solidity ^0.8.0;\r\n\r\nimport './ERC721.sol';\r\n\r\ncontract ERC721Enumerable is ERC721 {\r\n\r\n    uint256[] private _allTokens;\r\n\r\n    //mapping from tokenId to position in _allTokens array\r\n    mapping(uint256 => uint256) private _allTokensIndex;\r\n\r\n    //mapping of owner to list of all owner token id\r\n    mapping(address => uint256[]) private _ownedTokens;\r\n\r\n    //mapping from tokenId to index of the owner tokens list\r\n    mapping(uint256 => uint256) private _ownedTokensIndex;\r\n\r\n    //function tokenByIndex(uint256 _index) external view returns(uint256);\r\n\r\n    //function tokenOfOwnerByIndex(address _owner, uint256 _index) external view returns (uint256);\r\n\r\n    function _mint(address to, uint256 tokenId) internal override(ERC721) {\r\n        super._mint(to, tokenId);\r\n\r\n        _addTokensToAllTokenEnumeration(tokenId);\r\n        _addTokensToOwnerEnumeration(to, tokenId);\r\n\r\n    }\r\n\r\n    function _addTokensToAllTokenEnumeration(uint256 tokenId) private {\r\n        _allTokensIndex[tokenId] = _allTokens.length;\r\n        _allTokens.push(tokenId);\r\n        \r\n    }\r\n\r\n    function _addTokensToOwnerEnumeration(address to, uint256 tokenId) private {\r\n        _ownedTokensIndex[tokenId] = _ownedTokens[to].length;\r\n        _ownedTokens[to].push(tokenId);        \r\n    }\r\n\r\n    function tokenByIndex(uint256 index) public view returns(uint256) {\r\n        require(index < totalSupply(), 'global index is out of bounds');\r\n        return _allTokens[index];\r\n    }\r\n\r\n    function tokenOfOwnerByIndex(address owner, uint256 index) public view returns(uint256)\r\n    {\r\n        require(index < balanceOf(owner),'owner index is out of bounds');\r\n        return _ownedTokens[owner][index];\r\n    }\r\n   \r\n\r\n    function totalSupply() public view returns (uint256){\r\n        return _allTokens.length;\r\n    }\r\n\r\n}",
  "sourcePath": "D:\\Programs\\nft-marketplace-starter-kit\\src\\contracts\\ERC721Enumerable.sol",
  "compiler": {
    "name": "solc",
    "version": "0.8.17+commit.8df45f5f.Emscripten.clang"
  },
  "schemaVersion": "3.4.10",
  "updatedAt": "2022-10-26T21:30:30.272Z",
  "devdoc": {
    "kind": "dev",
    "methods": {},
    "version": 1
  },
  "userdoc": {
    "kind": "user",
    "methods": {},
    "version": 1
  }
}