{
  "contractName": "KryptoBird",
  "abi": [
    {
      "inputs": [],
      "stateMutability": "nonpayable",
      "type": "constructor"
    },
    {
      "anonymous": false,
      "inputs": [
        {
          "indexed": true,
          "internalType": "address",
          "name": "from",
          "type": "address"
        },
        {
          "indexed": true,
          "internalType": "address",
          "name": "to",
          "type": "address"
        },
        {
          "indexed": true,
          "internalType": "uint256",
          "name": "tokenId",
          "type": "uint256"
        }
      ],
      "name": "Transfer",
      "type": "event"
    },
    {
      "inputs": [
        {
          "internalType": "address",
          "name": "_owner",
          "type": "address"
        }
      ],
      "name": "balanceOf",
      "outputs": [
        {
          "internalType": "uint256",
          "name": "",
          "type": "uint256"
        }
      ],
      "stateMutability": "view",
      "type": "function",
      "constant": true
    },
    {
      "inputs": [
        {
          "internalType": "uint256",
          "name": "",
          "type": "uint256"
        }
      ],
      "name": "kryptoBirdz",
      "outputs": [
        {
          "internalType": "string",
          "name": "",
          "type": "string"
        }
      ],
      "stateMutability": "view",
      "type": "function",
      "constant": true
    },
    {
      "inputs": [],
      "name": "name",
      "outputs": [
        {
          "internalType": "string",
          "name": "",
          "type": "string"
        }
      ],
      "stateMutability": "view",
      "type": "function",
      "constant": true
    },
    {
      "inputs": [
        {
          "internalType": "uint256",
          "name": "_tokenId",
          "type": "uint256"
        }
      ],
      "name": "ownerOf",
      "outputs": [
        {
          "internalType": "address",
          "name": "",
          "type": "address"
        }
      ],
      "stateMutability": "view",
      "type": "function",
      "constant": true
    },
    {
      "inputs": [],
      "name": "symbol",
      "outputs": [
        {
          "internalType": "string",
          "name": "",
          "type": "string"
        }
      ],
      "stateMutability": "view",
      "type": "function",
      "constant": true
    },
    {
      "inputs": [
        {
          "internalType": "uint256",
          "name": "index",
          "type": "uint256"
        }
      ],
      "name": "tokenByIndex",
      "outputs": [
        {
          "internalType": "uint256",
          "name": "",
          "type": "uint256"
        }
      ],
      "stateMutability": "view",
      "type": "function",
      "constant": true
    },
    {
      "inputs": [
        {
          "internalType": "address",
          "name": "owner",
          "type": "address"
        },
        {
          "internalType": "uint256",
          "name": "index",
          "type": "uint256"
        }
      ],
      "name": "tokenOfOwnerByIndex",
      "outputs": [
        {
          "internalType": "uint256",
          "name": "",
          "type": "uint256"
        }
      ],
      "stateMutability": "view",
      "type": "function",
      "constant": true
    },
    {
      "inputs": [],
      "name": "totalSupply",
      "outputs": [
        {
          "internalType": "uint256",
          "name": "",
          "type": "uint256"
        }
      ],
      "stateMutability": "view",
      "type": "function",
      "constant": true
    },
    {
      "inputs": [
        {
          "internalType": "address",
          "name": "_from",
          "type": "address"
        },
        {
          "internalType": "address",
          "name": "_to",
          "type": "address"
        },
        {
          "internalType": "uint256",
          "name": "_tokenId",
          "type": "uint256"
        }
      ],
      "name": "transferFrom",
      "outputs": [],
      "stateMutability": "nonpayable",
      "type": "function"
    },
    {
      "inputs": [
        {
          "internalType": "string",
          "name": "_kryptoBird",
          "type": "string"
        }
      ],
      "name": "mint",
      "outputs": [],
      "stateMutability": "nonpayable",
      "type": "function"
    }
  ],
  "bytecode": "0x60806040523480156200001157600080fd5b506040518060400160405280600a81526020017f4b727970746f42697264000000000000000000000000000000000000000000008152506040518060400160405280600681526020017f4b424952445a00000000000000000000000000000000000000000000000000008152508181816000908162000091919062000328565b508060019081620000a3919062000328565b50505050506200040f565b600081519050919050565b7f4e487b7100000000000000000000000000000000000000000000000000000000600052604160045260246000fd5b7f4e487b7100000000000000000000000000000000000000000000000000000000600052602260045260246000fd5b600060028204905060018216806200013057607f821691505b602082108103620001465762000145620000e8565b5b50919050565b60008190508160005260206000209050919050565b60006020601f8301049050919050565b600082821b905092915050565b600060088302620001b07fffffffffffffffffffffffffffffffffffffffffffffffffffffffffffffffff8262000171565b620001bc868362000171565b95508019841693508086168417925050509392505050565b6000819050919050565b6000819050919050565b60006200020962000203620001fd84620001d4565b620001de565b620001d4565b9050919050565b6000819050919050565b6200022583620001e8565b6200023d620002348262000210565b8484546200017e565b825550505050565b600090565b6200025462000245565b620002618184846200021a565b505050565b5b8181101562000289576200027d6000826200024a565b60018101905062000267565b5050565b601f821115620002d857620002a2816200014c565b620002ad8462000161565b81016020851015620002bd578190505b620002d5620002cc8562000161565b83018262000266565b50505b505050565b600082821c905092915050565b6000620002fd60001984600802620002dd565b1980831691505092915050565b6000620003188383620002ea565b9150826002028217905092915050565b6200033382620000ae565b67ffffffffffffffff8111156200034f576200034e620000b9565b5b6200035b825462000117565b620003688282856200028d565b600060209050601f831160018114620003a057600084156200038b578287015190505b6200039785826200030a565b86555062000407565b601f198416620003b0866200014c565b60005b82811015620003da57848901518255600182019150602085019450602081019050620003b3565b86831015620003fa5784890151620003f6601f891682620002ea565b8355505b6001600288020188555050505b505050505050565b6119f4806200041f6000396000f3fe608060405234801561001057600080fd5b506004361061009e5760003560e01c80636352211e116100665780636352211e1461015b57806370a082311461018b57806393ab6e56146101bb57806395d89b41146101eb578063d85d3d27146102095761009e565b806306fdde03146100a357806318160ddd146100c157806323b872dd146100df5780632f745c59146100fb5780634f6ccce71461012b575b600080fd5b6100ab610225565b6040516100b89190610dfa565b60405180910390f35b6100c96102b7565b6040516100d69190610e35565b60405180910390f35b6100f960048036038101906100f49190610eee565b6102c4565b005b61011560048036038101906101109190610f41565b6102d4565b6040516101229190610e35565b60405180910390f35b61014560048036038101906101409190610f81565b610384565b6040516101529190610e35565b60405180910390f35b61017560048036038101906101709190610f81565b6103f5565b6040516101829190610fbd565b60405180910390f35b6101a560048036038101906101a09190610fd8565b6104d3565b6040516101b29190610e35565b60405180910390f35b6101d560048036038101906101d09190610f81565b61058a565b6040516101e29190610dfa565b60405180910390f35b6101f3610636565b6040516102009190610dfa565b60405180910390f35b610223600480360381019061021e919061113a565b6106c8565b005b606060008054610234906111b2565b80601f0160208091040260200160405190810160405280929190818152602001828054610260906111b2565b80156102ad5780601f10610282576101008083540402835291602001916102ad565b820191906000526020600020905b81548152906001019060200180831161029057829003601f168201915b5050505050905090565b6000600580549050905090565b6102cf8383836107c4565b505050565b60006102df836104d3565b8210610320576040517f08c379a00000000000000000000000000000000000000000000000000000000081526004016103179061122f565b60405180910390fd5b600760008473ffffffffffffffffffffffffffffffffffffffff1673ffffffffffffffffffffffffffffffffffffffff16815260200190815260200160002082815481106103715761037061124f565b5b9060005260206000200154905092915050565b600061038e6102b7565b82106103cf576040517f08c379a00000000000000000000000000000000000000000000000000000000081526004016103c6906112ca565b60405180910390fd5b600582815481106103e3576103e261124f565b5b90600052602060002001549050919050565b60008073ffffffffffffffffffffffffffffffffffffffff166002600084815260200190815260200160002060009054906101000a900473ffffffffffffffffffffffffffffffffffffffff1673ffffffffffffffffffffffffffffffffffffffff1603610498576040517f08c379a000000000000000000000000000000000000000000000000000000000815260040161048f9061135c565b60405180910390fd5b6002600083815260200190815260200160002060009054906101000a900473ffffffffffffffffffffffffffffffffffffffff169050919050565b60008073ffffffffffffffffffffffffffffffffffffffff168273ffffffffffffffffffffffffffffffffffffffff1603610543576040517f08c379a000000000000000000000000000000000000000000000000000000000815260040161053a9061135c565b60405180910390fd5b600360008373ffffffffffffffffffffffffffffffffffffffff1673ffffffffffffffffffffffffffffffffffffffff168152602001908152602001600020549050919050565b6009818154811061059a57600080fd5b9060005260206000200160009150905080546105b5906111b2565b80601f01602080910402602001604051908101604052809291908181526020018280546105e1906111b2565b801561062e5780601f106106035761010080835404028352916020019161062e565b820191906000526020600020905b81548152906001019060200180831161061157829003601f168201915b505050505081565b606060018054610645906111b2565b80601f0160208091040260200160405190810160405280929190818152602001828054610671906111b2565b80156106be5780601f10610693576101008083540402835291602001916106be565b820191906000526020600020905b8154815290600101906020018083116106a157829003601f168201915b5050505050905090565b600a816040516106d891906113b8565b908152602001604051809103902060009054906101000a900460ff1615610734576040517f08c379a000000000000000000000000000000000000000000000000000000000815260040161072b90611441565b60405180910390fd5b600981908060018154018082558091505060019003906000526020600020016000909190919091509081610768919061160d565b506000600160098054905061077d919061170e565b90506107893382610a09565b6001600a8360405161079b91906113b8565b908152602001604051809103902060006101000a81548160ff0219169083151502179055505050565b600073ffffffffffffffffffffffffffffffffffffffff168273ffffffffffffffffffffffffffffffffffffffff1603610833576040517f08c379a000000000000000000000000000000000000000000000000000000000815260040161082a906117b4565b60405180910390fd5b8273ffffffffffffffffffffffffffffffffffffffff16610853826103f5565b73ffffffffffffffffffffffffffffffffffffffff16146108a9576040517f08c379a00000000000000000000000000000000000000000000000000000000081526004016108a09061186c565b60405180910390fd5b816002600083815260200190815260200160002060006101000a81548173ffffffffffffffffffffffffffffffffffffffff021916908373ffffffffffffffffffffffffffffffffffffffff1602179055506001600360008573ffffffffffffffffffffffffffffffffffffffff1673ffffffffffffffffffffffffffffffffffffffff168152602001908152602001600020600082825461094b919061170e565b925050819055506001600360008473ffffffffffffffffffffffffffffffffffffffff1673ffffffffffffffffffffffffffffffffffffffff16815260200190815260200160002060008282546109a2919061188c565b92505081905550808273ffffffffffffffffffffffffffffffffffffffff168473ffffffffffffffffffffffffffffffffffffffff167fddf252ad1be2c89b69c2b068fc378daa952ba7f163c4a11628f55a4df523b3ef60405160405180910390a4505050565b610a138282610a2a565b610a1c81610beb565b610a268282610c34565b5050565b600073ffffffffffffffffffffffffffffffffffffffff168273ffffffffffffffffffffffffffffffffffffffff1603610a99576040517f08c379a0000000000000000000000000000000000000000000000000000000008152600401610a9090611932565b60405180910390fd5b610aa281610cf8565b15610ae2576040517f08c379a0000000000000000000000000000000000000000000000000000000008152600401610ad99061199e565b60405180910390fd5b816002600083815260200190815260200160002060006101000a81548173ffffffffffffffffffffffffffffffffffffffff021916908373ffffffffffffffffffffffffffffffffffffffff1602179055506001600360008473ffffffffffffffffffffffffffffffffffffffff1673ffffffffffffffffffffffffffffffffffffffff1681526020019081526020016000206000828254610b84919061188c565b92505081905550808273ffffffffffffffffffffffffffffffffffffffff16600073ffffffffffffffffffffffffffffffffffffffff167fddf252ad1be2c89b69c2b068fc378daa952ba7f163c4a11628f55a4df523b3ef60405160405180910390a45050565b6005805490506006600083815260200190815260200160002081905550600581908060018154018082558091505060019003906000526020600020016000909190919091505550565b600760008373ffffffffffffffffffffffffffffffffffffffff1673ffffffffffffffffffffffffffffffffffffffff168152602001908152602001600020805490506008600083815260200190815260200160002081905550600760008373ffffffffffffffffffffffffffffffffffffffff1673ffffffffffffffffffffffffffffffffffffffff1681526020019081526020016000208190806001815401808255809150506001900390600052602060002001600090919091909150555050565b6000806002600084815260200190815260200160002060009054906101000a900473ffffffffffffffffffffffffffffffffffffffff169050600073ffffffffffffffffffffffffffffffffffffffff168173ffffffffffffffffffffffffffffffffffffffff161415915050919050565b600081519050919050565b600082825260208201905092915050565b60005b83811015610da4578082015181840152602081019050610d89565b60008484015250505050565b6000601f19601f8301169050919050565b6000610dcc82610d6a565b610dd68185610d75565b9350610de6818560208601610d86565b610def81610db0565b840191505092915050565b60006020820190508181036000830152610e148184610dc1565b905092915050565b6000819050919050565b610e2f81610e1c565b82525050565b6000602082019050610e4a6000830184610e26565b92915050565b6000604051905090565b600080fd5b600080fd5b600073ffffffffffffffffffffffffffffffffffffffff82169050919050565b6000610e8f82610e64565b9050919050565b610e9f81610e84565b8114610eaa57600080fd5b50565b600081359050610ebc81610e96565b92915050565b610ecb81610e1c565b8114610ed657600080fd5b50565b600081359050610ee881610ec2565b92915050565b600080600060608486031215610f0757610f06610e5a565b5b6000610f1586828701610ead565b9350506020610f2686828701610ead565b9250506040610f3786828701610ed9565b9150509250925092565b60008060408385031215610f5857610f57610e5a565b5b6000610f6685828601610ead565b9250506020610f7785828601610ed9565b9150509250929050565b600060208284031215610f9757610f96610e5a565b5b6000610fa584828501610ed9565b91505092915050565b610fb781610e84565b82525050565b6000602082019050610fd26000830184610fae565b92915050565b600060208284031215610fee57610fed610e5a565b5b6000610ffc84828501610ead565b91505092915050565b600080fd5b600080fd5b7f4e487b7100000000000000000000000000000000000000000000000000000000600052604160045260246000fd5b61104782610db0565b810181811067ffffffffffffffff821117156110665761106561100f565b5b80604052505050565b6000611079610e50565b9050611085828261103e565b919050565b600067ffffffffffffffff8211156110a5576110a461100f565b5b6110ae82610db0565b9050602081019050919050565b82818337600083830152505050565b60006110dd6110d88461108a565b61106f565b9050828152602081018484840111156110f9576110f861100a565b5b6111048482856110bb565b509392505050565b600082601f83011261112157611120611005565b5b81356111318482602086016110ca565b91505092915050565b6000602082840312156111505761114f610e5a565b5b600082013567ffffffffffffffff81111561116e5761116d610e5f565b5b61117a8482850161110c565b91505092915050565b7f4e487b7100000000000000000000000000000000000000000000000000000000600052602260045260246000fd5b600060028204905060018216806111ca57607f821691505b6020821081036111dd576111dc611183565b5b50919050565b7f6f776e657220696e646578206973206f7574206f6620626f756e647300000000600082015250565b6000611219601c83610d75565b9150611224826111e3565b602082019050919050565b600060208201905081810360008301526112488161120c565b9050919050565b7f4e487b7100000000000000000000000000000000000000000000000000000000600052603260045260246000fd5b7f676c6f62616c20696e646578206973206f7574206f6620626f756e6473000000600082015250565b60006112b4601d83610d75565b91506112bf8261127e565b602082019050919050565b600060208201905081810360008301526112e3816112a7565b9050919050565b7f4f776e657220717565727920666f72206e6f6e2d6578697374656e7420746f6b60008201527f656e000000000000000000000000000000000000000000000000000000000000602082015250565b6000611346602283610d75565b9150611351826112ea565b604082019050919050565b6000602082019050818103600083015261137581611339565b9050919050565b600081905092915050565b600061139282610d6a565b61139c818561137c565b93506113ac818560208601610d86565b80840191505092915050565b60006113c48284611387565b915081905092915050565b7f4572726f72202d206b727970746f4269726420616c726561647920657869737460008201527f7300000000000000000000000000000000000000000000000000000000000000602082015250565b600061142b602183610d75565b9150611436826113cf565b604082019050919050565b6000602082019050818103600083015261145a8161141e565b9050919050565b60008190508160005260206000209050919050565b60006020601f8301049050919050565b600082821b905092915050565b6000600883026114c37fffffffffffffffffffffffffffffffffffffffffffffffffffffffffffffffff82611486565b6114cd8683611486565b95508019841693508086168417925050509392505050565b6000819050919050565b600061150a61150561150084610e1c565b6114e5565b610e1c565b9050919050565b6000819050919050565b611524836114ef565b61153861153082611511565b848454611493565b825550505050565b600090565b61154d611540565b61155881848461151b565b505050565b5b8181101561157c57611571600082611545565b60018101905061155e565b5050565b601f8211156115c15761159281611461565b61159b84611476565b810160208510156115aa578190505b6115be6115b685611476565b83018261155d565b50505b505050565b600082821c905092915050565b60006115e4600019846008026115c6565b1980831691505092915050565b60006115fd83836115d3565b9150826002028217905092915050565b61161682610d6a565b67ffffffffffffffff81111561162f5761162e61100f565b5b61163982546111b2565b611644828285611580565b600060209050601f8311600181146116775760008415611665578287015190505b61166f85826115f1565b8655506116d7565b601f19841661168586611461565b60005b828110156116ad57848901518255600182019150602085019450602081019050611688565b868310156116ca57848901516116c6601f8916826115d3565b8355505b6001600288020188555050505b505050505050565b7f4e487b7100000000000000000000000000000000000000000000000000000000600052601160045260246000fd5b600061171982610e1c565b915061172483610e1c565b925082820390508181111561173c5761173b6116df565b5b92915050565b7f4552433237313a20746f6b656e2063616e6e6f74206265207472616e7366657260008201527f72656420746f20746865207a65726f2061646472657373000000000000000000602082015250565b600061179e603783610d75565b91506117a982611742565b604082019050919050565b600060208201905081810360008301526117cd81611791565b9050919050565b7f4552433237313a207468652066726f6d206164647265737320646f6573206e6f60008201527f74206f776e2074686520746f6b656e206265696e67207472616e73666572726560208201527f6400000000000000000000000000000000000000000000000000000000000000604082015250565b6000611856604183610d75565b9150611861826117d4565b606082019050919050565b6000602082019050818103600083015261188581611849565b9050919050565b600061189782610e1c565b91506118a283610e1c565b92508282019050808211156118ba576118b96116df565b5b92915050565b7f4552433732313a206d696e74696e6720746f20746865207a65726f206164647260008201527f6573730000000000000000000000000000000000000000000000000000000000602082015250565b600061191c602383610d75565b9150611927826118c0565b604082019050919050565b6000602082019050818103600083015261194b8161190f565b9050919050565b7f45523732313a20746f6b656e20616c7265616479206d696e7465640000000000600082015250565b6000611988601b83610d75565b915061199382611952565b602082019050919050565b600060208201905081810360008301526119b78161197b565b905091905056fea2646970667358221220bb24cc4939556e308ba28280c7868745b3fdbe6602d0b929d0ab0d56b1732c5e64736f6c63430008110033",
  "immutableReferences": {},
  "source": "// SPDX-License-Identifier: MIT\r\npragma solidity ^0.8.0;\r\n\r\nimport './ERC721Connector.sol';\r\n\r\ncontract KryptoBird is ERC721Connector{\r\n\r\n    string[] public kryptoBirdz;\r\n\r\n    mapping(string => bool) _krypotBirdzExists;\r\n\r\n    function mint(string memory _kryptoBird) public {\r\n        \r\n        require(!_krypotBirdzExists[_kryptoBird], 'Error - kryptoBird already exists');\r\n        kryptoBirdz.push(_kryptoBird);\r\n\r\n        uint256 _id = kryptoBirdz.length - 1;\r\n\r\n        _mint(msg.sender, _id);\r\n\r\n        _krypotBirdzExists[_kryptoBird] = true;\r\n\r\n    }\r\n    \r\n    constructor() ERC721Connector('KryptoBird','KBIRDZ') {\r\n        \r\n    }\r\n}",
  "sourcePath": "D:\\Programs\\nft-marketplace-starter-kit\\src\\contracts\\KryptoBirdz.sol",
  "compiler": {
    "name": "solc",
    "version": "0.8.17+commit.8df45f5f.Emscripten.clang"
  },
  "schemaVersion": "3.4.10",
  "updatedAt": "2022-10-23T21:36:14.753Z",
  "networkType": "ethereum",
  "devdoc": {
    "kind": "dev",
    "methods": {},
    "version": 1
  },
  "userdoc": {
    "kind": "user",
    "methods": {},
    "version": 1
  }
}