{
  "contractName": "KryptoBird",
  "abi": [
    {
      "inputs": [],
      "stateMutability": "nonpayable",
      "type": "constructor"
    },
    {
      "anonymous": false,
      "inputs": [
        {
          "indexed": true,
          "internalType": "address",
          "name": "_owner",
          "type": "address"
        },
        {
          "indexed": true,
          "internalType": "address",
          "name": "_approved",
          "type": "address"
        },
        {
          "indexed": true,
          "internalType": "uint256",
          "name": "_tokenId",
          "type": "uint256"
        }
      ],
      "name": "Approval",
      "type": "event"
    },
    {
      "anonymous": false,
      "inputs": [
        {
          "indexed": true,
          "internalType": "address",
          "name": "_from",
          "type": "address"
        },
        {
          "indexed": true,
          "internalType": "address",
          "name": "_to",
          "type": "address"
        },
        {
          "indexed": true,
          "internalType": "uint256",
          "name": "_tokenId",
          "type": "uint256"
        }
      ],
      "name": "Transfer",
      "type": "event"
    },
    {
      "inputs": [
        {
          "internalType": "address",
          "name": "_to",
          "type": "address"
        },
        {
          "internalType": "uint256",
          "name": "_tokenId",
          "type": "uint256"
        }
      ],
      "name": "approve",
      "outputs": [],
      "stateMutability": "nonpayable",
      "type": "function"
    },
    {
      "inputs": [
        {
          "internalType": "address",
          "name": "_owner",
          "type": "address"
        }
      ],
      "name": "balanceOf",
      "outputs": [
        {
          "internalType": "uint256",
          "name": "",
          "type": "uint256"
        }
      ],
      "stateMutability": "view",
      "type": "function",
      "constant": true
    },
    {
      "inputs": [
        {
          "internalType": "uint256",
          "name": "tokenId",
          "type": "uint256"
        }
      ],
      "name": "getApproved",
      "outputs": [
        {
          "internalType": "address",
          "name": "",
          "type": "address"
        }
      ],
      "stateMutability": "view",
      "type": "function",
      "constant": true
    },
    {
      "inputs": [
        {
          "internalType": "uint256",
          "name": "",
          "type": "uint256"
        }
      ],
      "name": "kryptoBirdz",
      "outputs": [
        {
          "internalType": "string",
          "name": "",
          "type": "string"
        }
      ],
      "stateMutability": "view",
      "type": "function",
      "constant": true
    },
    {
      "inputs": [],
      "name": "name",
      "outputs": [
        {
          "internalType": "string",
          "name": "",
          "type": "string"
        }
      ],
      "stateMutability": "view",
      "type": "function",
      "constant": true
    },
    {
      "inputs": [
        {
          "internalType": "uint256",
          "name": "_tokenId",
          "type": "uint256"
        }
      ],
      "name": "ownerOf",
      "outputs": [
        {
          "internalType": "address",
          "name": "",
          "type": "address"
        }
      ],
      "stateMutability": "view",
      "type": "function",
      "constant": true
    },
    {
      "inputs": [
        {
          "internalType": "bytes4",
          "name": "interfaceID",
          "type": "bytes4"
        }
      ],
      "name": "supportsInterface",
      "outputs": [
        {
          "internalType": "bool",
          "name": "",
          "type": "bool"
        }
      ],
      "stateMutability": "view",
      "type": "function",
      "constant": true
    },
    {
      "inputs": [],
      "name": "symbol",
      "outputs": [
        {
          "internalType": "string",
          "name": "",
          "type": "string"
        }
      ],
      "stateMutability": "view",
      "type": "function",
      "constant": true
    },
    {
      "inputs": [
        {
          "internalType": "uint256",
          "name": "index",
          "type": "uint256"
        }
      ],
      "name": "tokenByIndex",
      "outputs": [
        {
          "internalType": "uint256",
          "name": "",
          "type": "uint256"
        }
      ],
      "stateMutability": "view",
      "type": "function",
      "constant": true
    },
    {
      "inputs": [
        {
          "internalType": "address",
          "name": "owner",
          "type": "address"
        },
        {
          "internalType": "uint256",
          "name": "index",
          "type": "uint256"
        }
      ],
      "name": "tokenOfOwnerByIndex",
      "outputs": [
        {
          "internalType": "uint256",
          "name": "",
          "type": "uint256"
        }
      ],
      "stateMutability": "view",
      "type": "function",
      "constant": true
    },
    {
      "inputs": [],
      "name": "totalSupply",
      "outputs": [
        {
          "internalType": "uint256",
          "name": "",
          "type": "uint256"
        }
      ],
      "stateMutability": "view",
      "type": "function",
      "constant": true
    },
    {
      "inputs": [
        {
          "internalType": "address",
          "name": "_from",
          "type": "address"
        },
        {
          "internalType": "address",
          "name": "_to",
          "type": "address"
        },
        {
          "internalType": "uint256",
          "name": "_tokenId",
          "type": "uint256"
        }
      ],
      "name": "transferFrom",
      "outputs": [],
      "stateMutability": "nonpayable",
      "type": "function"
    },
    {
      "inputs": [
        {
          "internalType": "string",
          "name": "_kryptoBird",
          "type": "string"
        }
      ],
      "name": "mint",
      "outputs": [],
      "stateMutability": "nonpayable",
      "type": "function"
    }
  ],
  "bytecode": "0x60806040523480156200001157600080fd5b506040518060400160405280600a81526020017f4b727970746f42697264000000000000000000000000000000000000000000008152506040518060400160405280600681526020017f4b424952445a00000000000000000000000000000000000000000000000000008152508181620000b17f01ffc9a7a5cef8baa21ed3c5c0d7e23accb804b619e9333b597f47a0d84076e26200021c60201b60201c565b620001047f95d89b41e2f5f391a79ec54e9d87c79d6e777c63e32c28da95b4e9e4a79250ec7f06fdde0383f15d582d1a74511486c9ddf862a882fb7904b3d9fe9b8b8e58a796186200021c60201b60201c565b81600190816200011591906200056d565b5080600290816200012791906200056d565b5050506200019f7f23b872dd7302113369cda2901243429419bec145408fa8b352b3dd92b66c680b7f6352211e6566aa027e75ac9dbf2423197fbd9b82b9d981a3ab367d355866aa1c7f70a08231b98ef4ca268c9cc3f6b4590e4bfec28280db06bb5d45e689f2a360be18186200021c60201b60201c565b620002147f2f745c59a57ba1667616e5a9707eeaa36ec97c283ee24190b75d9c8d14bcb2157f4f6ccce7c41aed90ec1f1887c4a821594c0f73758d8941d0ccaa2cde813b72987f18160ddd7f15c72528c2f94fd8dfe3c8d5aa26e2c50c7d81f4bc7bee8d4b793218186200021c60201b60201c565b5050620006d7565b63ffffffff60e01b817bffffffffffffffffffffffffffffffffffffffffffffffffffffffff19160362000287576040517f08c379a00000000000000000000000000000000000000000000000000000000081526004016200027e90620006b5565b60405180910390fd5b6001600080837bffffffffffffffffffffffffffffffffffffffffffffffffffffffff19167bffffffffffffffffffffffffffffffffffffffffffffffffffffffff1916815260200190815260200160002060006101000a81548160ff02191690831515021790555050565b600081519050919050565b7f4e487b7100000000000000000000000000000000000000000000000000000000600052604160045260246000fd5b7f4e487b7100000000000000000000000000000000000000000000000000000000600052602260045260246000fd5b600060028204905060018216806200037557607f821691505b6020821081036200038b576200038a6200032d565b5b50919050565b60008190508160005260206000209050919050565b60006020601f8301049050919050565b600082821b905092915050565b600060088302620003f57fffffffffffffffffffffffffffffffffffffffffffffffffffffffffffffffff82620003b6565b620004018683620003b6565b95508019841693508086168417925050509392505050565b6000819050919050565b6000819050919050565b60006200044e62000448620004428462000419565b62000423565b62000419565b9050919050565b6000819050919050565b6200046a836200042d565b62000482620004798262000455565b848454620003c3565b825550505050565b600090565b620004996200048a565b620004a68184846200045f565b505050565b5b81811015620004ce57620004c26000826200048f565b600181019050620004ac565b5050565b601f8211156200051d57620004e78162000391565b620004f284620003a6565b8101602085101562000502578190505b6200051a6200051185620003a6565b830182620004ab565b50505b505050565b600082821c905092915050565b6000620005426000198460080262000522565b1980831691505092915050565b60006200055d83836200052f565b9150826002028217905092915050565b6200057882620002f3565b67ffffffffffffffff811115620005945762000593620002fe565b5b620005a082546200035c565b620005ad828285620004d2565b600060209050601f831160018114620005e55760008415620005d0578287015190505b620005dc85826200054f565b8655506200064c565b601f198416620005f58662000391565b60005b828110156200061f57848901518255600182019150602085019450602081019050620005f8565b868310156200063f57848901516200063b601f8916826200052f565b8355505b6001600288020188555050505b505050505050565b600082825260208201905092915050565b7f496e76616c696420696e74657266616365207265717565737400000000000000600082015250565b60006200069d60198362000654565b9150620006aa8262000665565b602082019050919050565b60006020820190508181036000830152620006d0816200068e565b9050919050565b61202d80620006e76000396000f3fe608060405234801561001057600080fd5b50600436106100cf5760003560e01c80632f745c591161008c57806370a082311161006657806370a082311461023857806393ab6e561461026857806395d89b4114610298578063d85d3d27146102b6576100cf565b80632f745c59146101a85780634f6ccce7146101d85780636352211e14610208576100cf565b806301ffc9a7146100d457806306fdde0314610104578063081812fc14610122578063095ea7b31461015257806318160ddd1461016e57806323b872dd1461018c575b600080fd5b6100ee60048036038101906100e991906111ea565b6102d2565b6040516100fb9190611232565b60405180910390f35b61010c610339565b60405161011991906112dd565b60405180910390f35b61013c60048036038101906101379190611335565b6103cb565b60405161014991906113a3565b60405180910390f35b61016c600480360381019061016791906113ea565b610450565b005b6101766105eb565b6040516101839190611439565b60405180910390f35b6101a660048036038101906101a19190611454565b6105f8565b005b6101c260048036038101906101bd91906113ea565b61061b565b6040516101cf9190611439565b60405180910390f35b6101f260048036038101906101ed9190611335565b6106cb565b6040516101ff9190611439565b60405180910390f35b610222600480360381019061021d9190611335565b61073c565b60405161022f91906113a3565b60405180910390f35b610252600480360381019061024d91906114a7565b61081a565b60405161025f9190611439565b60405180910390f35b610282600480360381019061027d9190611335565b6108d1565b60405161028f91906112dd565b60405180910390f35b6102a061097d565b6040516102ad91906112dd565b60405180910390f35b6102d060048036038101906102cb9190611609565b610a0f565b005b6000806000837bffffffffffffffffffffffffffffffffffffffffffffffffffffffff19167bffffffffffffffffffffffffffffffffffffffffffffffffffffffff1916815260200190815260200160002060009054906101000a900460ff169050919050565b60606001805461034890611681565b80601f016020809104026020016040519081016040528092919081815260200182805461037490611681565b80156103c15780601f10610396576101008083540402835291602001916103c1565b820191906000526020600020905b8154815290600101906020018083116103a457829003601f168201915b5050505050905090565b60006103d682610b0b565b610415576040517f08c379a000000000000000000000000000000000000000000000000000000000815260040161040c906116fe565b60405180910390fd5b6005600083815260200190815260200160002060009054906101000a900473ffffffffffffffffffffffffffffffffffffffff169050919050565b600061045b8261073c565b90508073ffffffffffffffffffffffffffffffffffffffff168373ffffffffffffffffffffffffffffffffffffffff16036104cb576040517f08c379a00000000000000000000000000000000000000000000000000000000081526004016104c29061176a565b60405180910390fd5b8073ffffffffffffffffffffffffffffffffffffffff163373ffffffffffffffffffffffffffffffffffffffff1614610539576040517f08c379a0000000000000000000000000000000000000000000000000000000008152600401610530906117fc565b60405180910390fd5b826005600084815260200190815260200160002060006101000a81548173ffffffffffffffffffffffffffffffffffffffff021916908373ffffffffffffffffffffffffffffffffffffffff160217905550818373ffffffffffffffffffffffffffffffffffffffff168273ffffffffffffffffffffffffffffffffffffffff167f8c5be1e5ebec7d5bd14f71427d1e84f3dd0314c0f7b2291e5b200ac8c7c3b92560405160405180910390a4505050565b6000600680549050905090565b6106023382610b7d565b61060b57600080fd5b610616838383610c4a565b505050565b60006106268361081a565b8210610667576040517f08c379a000000000000000000000000000000000000000000000000000000000815260040161065e90611868565b60405180910390fd5b600860008473ffffffffffffffffffffffffffffffffffffffff1673ffffffffffffffffffffffffffffffffffffffff16815260200190815260200160002082815481106106b8576106b7611888565b5b9060005260206000200154905092915050565b60006106d56105eb565b8210610716576040517f08c379a000000000000000000000000000000000000000000000000000000000815260040161070d90611903565b60405180910390fd5b6006828154811061072a57610729611888565b5b90600052602060002001549050919050565b60008073ffffffffffffffffffffffffffffffffffffffff166003600084815260200190815260200160002060009054906101000a900473ffffffffffffffffffffffffffffffffffffffff1673ffffffffffffffffffffffffffffffffffffffff16036107df576040517f08c379a00000000000000000000000000000000000000000000000000000000081526004016107d690611995565b60405180910390fd5b6003600083815260200190815260200160002060009054906101000a900473ffffffffffffffffffffffffffffffffffffffff169050919050565b60008073ffffffffffffffffffffffffffffffffffffffff168273ffffffffffffffffffffffffffffffffffffffff160361088a576040517f08c379a000000000000000000000000000000000000000000000000000000000815260040161088190611995565b60405180910390fd5b600460008373ffffffffffffffffffffffffffffffffffffffff1673ffffffffffffffffffffffffffffffffffffffff168152602001908152602001600020549050919050565b600a81815481106108e157600080fd5b9060005260206000200160009150905080546108fc90611681565b80601f016020809104026020016040519081016040528092919081815260200182805461092890611681565b80156109755780601f1061094a57610100808354040283529160200191610975565b820191906000526020600020905b81548152906001019060200180831161095857829003601f168201915b505050505081565b60606002805461098c90611681565b80601f01602080910402602001604051908101604052809291908181526020018280546109b890611681565b8015610a055780601f106109da57610100808354040283529160200191610a05565b820191906000526020600020905b8154815290600101906020018083116109e857829003601f168201915b5050505050905090565b600b81604051610a1f91906119f1565b908152602001604051809103902060009054906101000a900460ff1615610a7b576040517f08c379a0000000000000000000000000000000000000000000000000000000008152600401610a7290611a7a565b60405180910390fd5b600a81908060018154018082558091505060019003906000526020600020016000909190919091509081610aaf9190611c46565b5060006001600a80549050610ac49190611d47565b9050610ad03382610e8f565b6001600b83604051610ae291906119f1565b908152602001604051809103902060006101000a81548160ff0219169083151502179055505050565b6000806003600084815260200190815260200160002060009054906101000a900473ffffffffffffffffffffffffffffffffffffffff169050600073ffffffffffffffffffffffffffffffffffffffff168173ffffffffffffffffffffffffffffffffffffffff161415915050919050565b6000610b8882610b0b565b610bc7576040517f08c379a0000000000000000000000000000000000000000000000000000000008152600401610bbe906116fe565b60405180910390fd5b6000610bd28361073c565b90508073ffffffffffffffffffffffffffffffffffffffff168473ffffffffffffffffffffffffffffffffffffffff161480610c4157508373ffffffffffffffffffffffffffffffffffffffff16610c29846103cb565b73ffffffffffffffffffffffffffffffffffffffff16145b91505092915050565b600073ffffffffffffffffffffffffffffffffffffffff168273ffffffffffffffffffffffffffffffffffffffff1603610cb9576040517f08c379a0000000000000000000000000000000000000000000000000000000008152600401610cb090611ded565b60405180910390fd5b8273ffffffffffffffffffffffffffffffffffffffff16610cd98261073c565b73ffffffffffffffffffffffffffffffffffffffff1614610d2f576040517f08c379a0000000000000000000000000000000000000000000000000000000008152600401610d2690611ea5565b60405180910390fd5b816003600083815260200190815260200160002060006101000a81548173ffffffffffffffffffffffffffffffffffffffff021916908373ffffffffffffffffffffffffffffffffffffffff1602179055506001600460008573ffffffffffffffffffffffffffffffffffffffff1673ffffffffffffffffffffffffffffffffffffffff1681526020019081526020016000206000828254610dd19190611d47565b925050819055506001600460008473ffffffffffffffffffffffffffffffffffffffff1673ffffffffffffffffffffffffffffffffffffffff1681526020019081526020016000206000828254610e289190611ec5565b92505081905550808273ffffffffffffffffffffffffffffffffffffffff168473ffffffffffffffffffffffffffffffffffffffff167fddf252ad1be2c89b69c2b068fc378daa952ba7f163c4a11628f55a4df523b3ef60405160405180910390a4505050565b610e998282610eb0565b610ea281611071565b610eac82826110ba565b5050565b600073ffffffffffffffffffffffffffffffffffffffff168273ffffffffffffffffffffffffffffffffffffffff1603610f1f576040517f08c379a0000000000000000000000000000000000000000000000000000000008152600401610f1690611f6b565b60405180910390fd5b610f2881610b0b565b15610f68576040517f08c379a0000000000000000000000000000000000000000000000000000000008152600401610f5f90611fd7565b60405180910390fd5b816003600083815260200190815260200160002060006101000a81548173ffffffffffffffffffffffffffffffffffffffff021916908373ffffffffffffffffffffffffffffffffffffffff1602179055506001600460008473ffffffffffffffffffffffffffffffffffffffff1673ffffffffffffffffffffffffffffffffffffffff168152602001908152602001600020600082825461100a9190611ec5565b92505081905550808273ffffffffffffffffffffffffffffffffffffffff16600073ffffffffffffffffffffffffffffffffffffffff167fddf252ad1be2c89b69c2b068fc378daa952ba7f163c4a11628f55a4df523b3ef60405160405180910390a45050565b6006805490506007600083815260200190815260200160002081905550600681908060018154018082558091505060019003906000526020600020016000909190919091505550565b600860008373ffffffffffffffffffffffffffffffffffffffff1673ffffffffffffffffffffffffffffffffffffffff168152602001908152602001600020805490506009600083815260200190815260200160002081905550600860008373ffffffffffffffffffffffffffffffffffffffff1673ffffffffffffffffffffffffffffffffffffffff1681526020019081526020016000208190806001815401808255809150506001900390600052602060002001600090919091909150555050565b6000604051905090565b600080fd5b600080fd5b60007fffffffff0000000000000000000000000000000000000000000000000000000082169050919050565b6111c781611192565b81146111d257600080fd5b50565b6000813590506111e4816111be565b92915050565b600060208284031215611200576111ff611188565b5b600061120e848285016111d5565b91505092915050565b60008115159050919050565b61122c81611217565b82525050565b60006020820190506112476000830184611223565b92915050565b600081519050919050565b600082825260208201905092915050565b60005b8381101561128757808201518184015260208101905061126c565b60008484015250505050565b6000601f19601f8301169050919050565b60006112af8261124d565b6112b98185611258565b93506112c9818560208601611269565b6112d281611293565b840191505092915050565b600060208201905081810360008301526112f781846112a4565b905092915050565b6000819050919050565b611312816112ff565b811461131d57600080fd5b50565b60008135905061132f81611309565b92915050565b60006020828403121561134b5761134a611188565b5b600061135984828501611320565b91505092915050565b600073ffffffffffffffffffffffffffffffffffffffff82169050919050565b600061138d82611362565b9050919050565b61139d81611382565b82525050565b60006020820190506113b86000830184611394565b92915050565b6113c781611382565b81146113d257600080fd5b50565b6000813590506113e4816113be565b92915050565b6000806040838503121561140157611400611188565b5b600061140f858286016113d5565b925050602061142085828601611320565b9150509250929050565b611433816112ff565b82525050565b600060208201905061144e600083018461142a565b92915050565b60008060006060848603121561146d5761146c611188565b5b600061147b868287016113d5565b935050602061148c868287016113d5565b925050604061149d86828701611320565b9150509250925092565b6000602082840312156114bd576114bc611188565b5b60006114cb848285016113d5565b91505092915050565b600080fd5b600080fd5b7f4e487b7100000000000000000000000000000000000000000000000000000000600052604160045260246000fd5b61151682611293565b810181811067ffffffffffffffff82111715611535576115346114de565b5b80604052505050565b600061154861117e565b9050611554828261150d565b919050565b600067ffffffffffffffff821115611574576115736114de565b5b61157d82611293565b9050602081019050919050565b82818337600083830152505050565b60006115ac6115a784611559565b61153e565b9050828152602081018484840111156115c8576115c76114d9565b5b6115d384828561158a565b509392505050565b600082601f8301126115f0576115ef6114d4565b5b8135611600848260208601611599565b91505092915050565b60006020828403121561161f5761161e611188565b5b600082013567ffffffffffffffff81111561163d5761163c61118d565b5b611649848285016115db565b91505092915050565b7f4e487b7100000000000000000000000000000000000000000000000000000000600052602260045260246000fd5b6000600282049050600182168061169957607f821691505b6020821081036116ac576116ab611652565b5b50919050565b7f746f6b656e20646f6573206e6f74206578697374000000000000000000000000600082015250565b60006116e8601483611258565b91506116f3826116b2565b602082019050919050565b60006020820190508181036000830152611717816116db565b9050919050565b7f4572726f72202d20617070726f76616c2063757272656e74206f776e65720000600082015250565b6000611754601e83611258565b915061175f8261171e565b602082019050919050565b6000602082019050818103600083015261178381611747565b9050919050565b7f43757272656e742063616c6c6572206973206e6f7420746865206f776e65722060008201527f6f662074686520746f6b656e0000000000000000000000000000000000000000602082015250565b60006117e6602c83611258565b91506117f18261178a565b604082019050919050565b60006020820190508181036000830152611815816117d9565b9050919050565b7f6f776e657220696e646578206973206f7574206f6620626f756e647300000000600082015250565b6000611852601c83611258565b915061185d8261181c565b602082019050919050565b6000602082019050818103600083015261188181611845565b9050919050565b7f4e487b7100000000000000000000000000000000000000000000000000000000600052603260045260246000fd5b7f676c6f62616c20696e646578206973206f7574206f6620626f756e6473000000600082015250565b60006118ed601d83611258565b91506118f8826118b7565b602082019050919050565b6000602082019050818103600083015261191c816118e0565b9050919050565b7f4f776e657220717565727920666f72206e6f6e2d6578697374656e7420746f6b60008201527f656e000000000000000000000000000000000000000000000000000000000000602082015250565b600061197f602283611258565b915061198a82611923565b604082019050919050565b600060208201905081810360008301526119ae81611972565b9050919050565b600081905092915050565b60006119cb8261124d565b6119d581856119b5565b93506119e5818560208601611269565b80840191505092915050565b60006119fd82846119c0565b915081905092915050565b7f4572726f72202d206b727970746f4269726420616c726561647920657869737460008201527f7300000000000000000000000000000000000000000000000000000000000000602082015250565b6000611a64602183611258565b9150611a6f82611a08565b604082019050919050565b60006020820190508181036000830152611a9381611a57565b9050919050565b60008190508160005260206000209050919050565b60006020601f8301049050919050565b600082821b905092915050565b600060088302611afc7fffffffffffffffffffffffffffffffffffffffffffffffffffffffffffffffff82611abf565b611b068683611abf565b95508019841693508086168417925050509392505050565b6000819050919050565b6000611b43611b3e611b39846112ff565b611b1e565b6112ff565b9050919050565b6000819050919050565b611b5d83611b28565b611b71611b6982611b4a565b848454611acc565b825550505050565b600090565b611b86611b79565b611b91818484611b54565b505050565b5b81811015611bb557611baa600082611b7e565b600181019050611b97565b5050565b601f821115611bfa57611bcb81611a9a565b611bd484611aaf565b81016020851015611be3578190505b611bf7611bef85611aaf565b830182611b96565b50505b505050565b600082821c905092915050565b6000611c1d60001984600802611bff565b1980831691505092915050565b6000611c368383611c0c565b9150826002028217905092915050565b611c4f8261124d565b67ffffffffffffffff811115611c6857611c676114de565b5b611c728254611681565b611c7d828285611bb9565b600060209050601f831160018114611cb05760008415611c9e578287015190505b611ca88582611c2a565b865550611d10565b601f198416611cbe86611a9a565b60005b82811015611ce657848901518255600182019150602085019450602081019050611cc1565b86831015611d035784890151611cff601f891682611c0c565b8355505b6001600288020188555050505b505050505050565b7f4e487b7100000000000000000000000000000000000000000000000000000000600052601160045260246000fd5b6000611d52826112ff565b9150611d5d836112ff565b9250828203905081811115611d7557611d74611d18565b5b92915050565b7f4552433237313a20746f6b656e2063616e6e6f74206265207472616e7366657260008201527f72656420746f20746865207a65726f2061646472657373000000000000000000602082015250565b6000611dd7603783611258565b9150611de282611d7b565b604082019050919050565b60006020820190508181036000830152611e0681611dca565b9050919050565b7f4552433237313a207468652066726f6d206164647265737320646f6573206e6f60008201527f74206f776e2074686520746f6b656e206265696e67207472616e73666572726560208201527f6400000000000000000000000000000000000000000000000000000000000000604082015250565b6000611e8f604183611258565b9150611e9a82611e0d565b606082019050919050565b60006020820190508181036000830152611ebe81611e82565b9050919050565b6000611ed0826112ff565b9150611edb836112ff565b9250828201905080821115611ef357611ef2611d18565b5b92915050565b7f4552433732313a206d696e74696e6720746f20746865207a65726f206164647260008201527f6573730000000000000000000000000000000000000000000000000000000000602082015250565b6000611f55602383611258565b9150611f6082611ef9565b604082019050919050565b60006020820190508181036000830152611f8481611f48565b9050919050565b7f45523732313a20746f6b656e20616c7265616479206d696e7465640000000000600082015250565b6000611fc1601b83611258565b9150611fcc82611f8b565b602082019050919050565b60006020820190508181036000830152611ff081611fb4565b905091905056fea2646970667358221220d52f75576d3359ad1c20b7bcc4bd4a38f994173ebf289838c50e8c5230e60ba564736f6c63430008110033",
  "immutableReferences": {},
  "source": "// SPDX-License-Identifier: MIT\r\npragma solidity ^0.8.0;\r\n\r\nimport './ERC721Connector.sol';\r\n\r\ncontract KryptoBird is ERC721Connector{\r\n\r\n    string[] public kryptoBirdz;\r\n\r\n    mapping(string => bool) _krypotBirdzExists;\r\n\r\n    function mint(string memory _kryptoBird) public {\r\n        \r\n        require(!_krypotBirdzExists[_kryptoBird], 'Error - kryptoBird already exists');\r\n        kryptoBirdz.push(_kryptoBird);\r\n\r\n        uint256 _id = kryptoBirdz.length - 1;\r\n\r\n        _mint(msg.sender, _id);\r\n\r\n        _krypotBirdzExists[_kryptoBird] = true;\r\n\r\n    }\r\n    \r\n    constructor() ERC721Connector('KryptoBird','KBIRDZ') {\r\n        \r\n    }\r\n}",
  "sourcePath": "D:\\Programs\\nft-marketplace-starter-kit\\src\\contracts\\KryptoBirdz.sol",
  "compiler": {
    "name": "solc",
    "version": "0.8.17+commit.8df45f5f.Emscripten.clang"
  },
  "schemaVersion": "3.4.10",
  "updatedAt": "2022-11-03T20:28:37.377Z",
  "networkType": "ethereum",
  "devdoc": {
    "kind": "dev",
    "methods": {
      "supportsInterface(bytes4)": {
        "details": "Interface identification is specified in ERC-165. This function  uses less than 30,000 gas.",
        "params": {
          "interfaceID": "The interface identifier, as specified in ERC-165"
        },
        "returns": {
          "_0": "`true` if the contract implements `interfaceID` and  `interfaceID` is not 0xffffffff, `false` otherwise"
        }
      }
    },
    "version": 1
  },
  "userdoc": {
    "kind": "user",
    "methods": {
      "supportsInterface(bytes4)": {
        "notice": "Query if a contract implements an interface"
      }
    },
    "version": 1
  }
}