{
  "contractName": "KryptoBird",
  "abi": [
    {
      "inputs": [],
      "stateMutability": "nonpayable",
      "type": "constructor"
    },
    {
      "anonymous": false,
      "inputs": [
        {
          "indexed": true,
          "internalType": "address",
          "name": "from",
          "type": "address"
        },
        {
          "indexed": true,
          "internalType": "address",
          "name": "to",
          "type": "address"
        },
        {
          "indexed": true,
          "internalType": "uint256",
          "name": "tokenId",
          "type": "uint256"
        }
      ],
      "name": "Transfer",
      "type": "event"
    },
    {
      "inputs": [
        {
          "internalType": "address",
          "name": "_owner",
          "type": "address"
        }
      ],
      "name": "balanceOf",
      "outputs": [
        {
          "internalType": "uint256",
          "name": "",
          "type": "uint256"
        }
      ],
      "stateMutability": "view",
      "type": "function",
      "constant": true
    },
    {
      "inputs": [
        {
          "internalType": "uint256",
          "name": "",
          "type": "uint256"
        }
      ],
      "name": "kryptoBirdz",
      "outputs": [
        {
          "internalType": "string",
          "name": "",
          "type": "string"
        }
      ],
      "stateMutability": "view",
      "type": "function",
      "constant": true
    },
    {
      "inputs": [],
      "name": "name",
      "outputs": [
        {
          "internalType": "string",
          "name": "",
          "type": "string"
        }
      ],
      "stateMutability": "view",
      "type": "function",
      "constant": true
    },
    {
      "inputs": [
        {
          "internalType": "uint256",
          "name": "_tokenId",
          "type": "uint256"
        }
      ],
      "name": "ownerOf",
      "outputs": [
        {
          "internalType": "address",
          "name": "",
          "type": "address"
        }
      ],
      "stateMutability": "view",
      "type": "function",
      "constant": true
    },
    {
      "inputs": [],
      "name": "symbol",
      "outputs": [
        {
          "internalType": "string",
          "name": "",
          "type": "string"
        }
      ],
      "stateMutability": "view",
      "type": "function",
      "constant": true
    },
    {
      "inputs": [],
      "name": "totalSupply",
      "outputs": [
        {
          "internalType": "uint256",
          "name": "",
          "type": "uint256"
        }
      ],
      "stateMutability": "view",
      "type": "function",
      "constant": true
    },
    {
      "inputs": [
        {
          "internalType": "string",
          "name": "_kryptoBird",
          "type": "string"
        }
      ],
      "name": "mint",
      "outputs": [],
      "stateMutability": "nonpayable",
      "type": "function"
    }
  ],
  "bytecode": "0x60806040523480156200001157600080fd5b506040518060400160405280600a81526020017f4b727970746f42697264000000000000000000000000000000000000000000008152506040518060400160405280600681526020017f4b424952445a00000000000000000000000000000000000000000000000000008152508181816000908162000091919062000328565b508060019081620000a3919062000328565b50505050506200040f565b600081519050919050565b7f4e487b7100000000000000000000000000000000000000000000000000000000600052604160045260246000fd5b7f4e487b7100000000000000000000000000000000000000000000000000000000600052602260045260246000fd5b600060028204905060018216806200013057607f821691505b602082108103620001465762000145620000e8565b5b50919050565b60008190508160005260206000209050919050565b60006020601f8301049050919050565b600082821b905092915050565b600060088302620001b07fffffffffffffffffffffffffffffffffffffffffffffffffffffffffffffffff8262000171565b620001bc868362000171565b95508019841693508086168417925050509392505050565b6000819050919050565b6000819050919050565b60006200020962000203620001fd84620001d4565b620001de565b620001d4565b9050919050565b6000819050919050565b6200022583620001e8565b6200023d620002348262000210565b8484546200017e565b825550505050565b600090565b6200025462000245565b620002618184846200021a565b505050565b5b8181101562000289576200027d6000826200024a565b60018101905062000267565b5050565b601f821115620002d857620002a2816200014c565b620002ad8462000161565b81016020851015620002bd578190505b620002d5620002cc8562000161565b83018262000266565b50505b505050565b600082821c905092915050565b6000620002fd60001984600802620002dd565b1980831691505092915050565b6000620003188383620002ea565b9150826002028217905092915050565b6200033382620000ae565b67ffffffffffffffff8111156200034f576200034e620000b9565b5b6200035b825462000117565b620003688282856200028d565b600060209050601f831160018114620003a057600084156200038b578287015190505b6200039785826200030a565b86555062000407565b601f198416620003b0866200014c565b60005b82811015620003da57848901518255600182019150602085019450602081019050620003b3565b86831015620003fa5784890151620003f6601f891682620002ea565b8355505b6001600288020188555050505b505050505050565b611212806200041f6000396000f3fe608060405234801561001057600080fd5b506004361061007d5760003560e01c806370a082311161005b57806370a08231146100ee57806393ab6e561461011e57806395d89b411461014e578063d85d3d271461016c5761007d565b806306fdde031461008257806318160ddd146100a05780636352211e146100be575b600080fd5b61008a610188565b60405161009791906108fc565b60405180910390f35b6100a861021a565b6040516100b59190610937565b60405180910390f35b6100d860048036038101906100d39190610992565b610227565b6040516100e59190610a00565b60405180910390f35b61010860048036038101906101039190610a47565b610305565b6040516101159190610937565b60405180910390f35b61013860048036038101906101339190610992565b6103bc565b60405161014591906108fc565b60405180910390f35b610156610468565b60405161016391906108fc565b60405180910390f35b61018660048036038101906101819190610ba9565b6104fa565b005b60606000805461019790610c21565b80601f01602080910402602001604051908101604052809291908181526020018280546101c390610c21565b80156102105780601f106101e557610100808354040283529160200191610210565b820191906000526020600020905b8154815290600101906020018083116101f357829003601f168201915b5050505050905090565b6000600480549050905090565b60008073ffffffffffffffffffffffffffffffffffffffff166002600084815260200190815260200160002060009054906101000a900473ffffffffffffffffffffffffffffffffffffffff1673ffffffffffffffffffffffffffffffffffffffff16036102ca576040517f08c379a00000000000000000000000000000000000000000000000000000000081526004016102c190610cc4565b60405180910390fd5b6002600083815260200190815260200160002060009054906101000a900473ffffffffffffffffffffffffffffffffffffffff169050919050565b60008073ffffffffffffffffffffffffffffffffffffffff168273ffffffffffffffffffffffffffffffffffffffff1603610375576040517f08c379a000000000000000000000000000000000000000000000000000000000815260040161036c90610cc4565b60405180910390fd5b600360008373ffffffffffffffffffffffffffffffffffffffff1673ffffffffffffffffffffffffffffffffffffffff168152602001908152602001600020549050919050565b600881815481106103cc57600080fd5b9060005260206000200160009150905080546103e790610c21565b80601f016020809104026020016040519081016040528092919081815260200182805461041390610c21565b80156104605780601f1061043557610100808354040283529160200191610460565b820191906000526020600020905b81548152906001019060200180831161044357829003601f168201915b505050505081565b60606001805461047790610c21565b80601f01602080910402602001604051908101604052809291908181526020018280546104a390610c21565b80156104f05780601f106104c5576101008083540402835291602001916104f0565b820191906000526020600020905b8154815290600101906020018083116104d357829003601f168201915b5050505050905090565b60098160405161050a9190610d20565b908152602001604051809103902060009054906101000a900460ff1615610566576040517f08c379a000000000000000000000000000000000000000000000000000000000815260040161055d90610da9565b60405180910390fd5b60088190806001815401808255809150506001900390600052602060002001600090919091909150908161059a9190610f75565b50600060016008805490506105af9190611076565b90506105bb33826105f6565b60016009836040516105cd9190610d20565b908152602001604051809103902060006101000a81548160ff0219169083151502179055505050565b610600828261060d565b610609816107ce565b5050565b600073ffffffffffffffffffffffffffffffffffffffff168273ffffffffffffffffffffffffffffffffffffffff160361067c576040517f08c379a00000000000000000000000000000000000000000000000000000000081526004016106739061111c565b60405180910390fd5b610685816107fa565b156106c5576040517f08c379a00000000000000000000000000000000000000000000000000000000081526004016106bc90611188565b60405180910390fd5b816002600083815260200190815260200160002060006101000a81548173ffffffffffffffffffffffffffffffffffffffff021916908373ffffffffffffffffffffffffffffffffffffffff1602179055506001600360008473ffffffffffffffffffffffffffffffffffffffff1673ffffffffffffffffffffffffffffffffffffffff168152602001908152602001600020600082825461076791906111a8565b92505081905550808273ffffffffffffffffffffffffffffffffffffffff16600073ffffffffffffffffffffffffffffffffffffffff167fddf252ad1be2c89b69c2b068fc378daa952ba7f163c4a11628f55a4df523b3ef60405160405180910390a45050565b600481908060018154018082558091505060019003906000526020600020016000909190919091505550565b6000806002600084815260200190815260200160002060009054906101000a900473ffffffffffffffffffffffffffffffffffffffff169050600073ffffffffffffffffffffffffffffffffffffffff168173ffffffffffffffffffffffffffffffffffffffff161415915050919050565b600081519050919050565b600082825260208201905092915050565b60005b838110156108a657808201518184015260208101905061088b565b60008484015250505050565b6000601f19601f8301169050919050565b60006108ce8261086c565b6108d88185610877565b93506108e8818560208601610888565b6108f1816108b2565b840191505092915050565b6000602082019050818103600083015261091681846108c3565b905092915050565b6000819050919050565b6109318161091e565b82525050565b600060208201905061094c6000830184610928565b92915050565b6000604051905090565b600080fd5b600080fd5b61096f8161091e565b811461097a57600080fd5b50565b60008135905061098c81610966565b92915050565b6000602082840312156109a8576109a761095c565b5b60006109b68482850161097d565b91505092915050565b600073ffffffffffffffffffffffffffffffffffffffff82169050919050565b60006109ea826109bf565b9050919050565b6109fa816109df565b82525050565b6000602082019050610a1560008301846109f1565b92915050565b610a24816109df565b8114610a2f57600080fd5b50565b600081359050610a4181610a1b565b92915050565b600060208284031215610a5d57610a5c61095c565b5b6000610a6b84828501610a32565b91505092915050565b600080fd5b600080fd5b7f4e487b7100000000000000000000000000000000000000000000000000000000600052604160045260246000fd5b610ab6826108b2565b810181811067ffffffffffffffff82111715610ad557610ad4610a7e565b5b80604052505050565b6000610ae8610952565b9050610af48282610aad565b919050565b600067ffffffffffffffff821115610b1457610b13610a7e565b5b610b1d826108b2565b9050602081019050919050565b82818337600083830152505050565b6000610b4c610b4784610af9565b610ade565b905082815260208101848484011115610b6857610b67610a79565b5b610b73848285610b2a565b509392505050565b600082601f830112610b9057610b8f610a74565b5b8135610ba0848260208601610b39565b91505092915050565b600060208284031215610bbf57610bbe61095c565b5b600082013567ffffffffffffffff811115610bdd57610bdc610961565b5b610be984828501610b7b565b91505092915050565b7f4e487b7100000000000000000000000000000000000000000000000000000000600052602260045260246000fd5b60006002820490506001821680610c3957607f821691505b602082108103610c4c57610c4b610bf2565b5b50919050565b7f4f776e657220717565727920666f72206e6f6e2d6578697374656e7420746f6b60008201527f656e000000000000000000000000000000000000000000000000000000000000602082015250565b6000610cae602283610877565b9150610cb982610c52565b604082019050919050565b60006020820190508181036000830152610cdd81610ca1565b9050919050565b600081905092915050565b6000610cfa8261086c565b610d048185610ce4565b9350610d14818560208601610888565b80840191505092915050565b6000610d2c8284610cef565b915081905092915050565b7f4572726f72202d206b727970746f4269726420616c726561647920657869737460008201527f7300000000000000000000000000000000000000000000000000000000000000602082015250565b6000610d93602183610877565b9150610d9e82610d37565b604082019050919050565b60006020820190508181036000830152610dc281610d86565b9050919050565b60008190508160005260206000209050919050565b60006020601f8301049050919050565b600082821b905092915050565b600060088302610e2b7fffffffffffffffffffffffffffffffffffffffffffffffffffffffffffffffff82610dee565b610e358683610dee565b95508019841693508086168417925050509392505050565b6000819050919050565b6000610e72610e6d610e688461091e565b610e4d565b61091e565b9050919050565b6000819050919050565b610e8c83610e57565b610ea0610e9882610e79565b848454610dfb565b825550505050565b600090565b610eb5610ea8565b610ec0818484610e83565b505050565b5b81811015610ee457610ed9600082610ead565b600181019050610ec6565b5050565b601f821115610f2957610efa81610dc9565b610f0384610dde565b81016020851015610f12578190505b610f26610f1e85610dde565b830182610ec5565b50505b505050565b600082821c905092915050565b6000610f4c60001984600802610f2e565b1980831691505092915050565b6000610f658383610f3b565b9150826002028217905092915050565b610f7e8261086c565b67ffffffffffffffff811115610f9757610f96610a7e565b5b610fa18254610c21565b610fac828285610ee8565b600060209050601f831160018114610fdf5760008415610fcd578287015190505b610fd78582610f59565b86555061103f565b601f198416610fed86610dc9565b60005b8281101561101557848901518255600182019150602085019450602081019050610ff0565b86831015611032578489015161102e601f891682610f3b565b8355505b6001600288020188555050505b505050505050565b7f4e487b7100000000000000000000000000000000000000000000000000000000600052601160045260246000fd5b60006110818261091e565b915061108c8361091e565b92508282039050818111156110a4576110a3611047565b5b92915050565b7f4552433732313a206d696e74696e6720746f20746865207a65726f206164647260008201527f6573730000000000000000000000000000000000000000000000000000000000602082015250565b6000611106602383610877565b9150611111826110aa565b604082019050919050565b60006020820190508181036000830152611135816110f9565b9050919050565b7f45523732313a20746f6b656e20616c7265616479206d696e7465640000000000600082015250565b6000611172601b83610877565b915061117d8261113c565b602082019050919050565b600060208201905081810360008301526111a181611165565b9050919050565b60006111b38261091e565b91506111be8361091e565b92508282019050808211156111d6576111d5611047565b5b9291505056fea2646970667358221220a12e0fec494a9f8c3051a91a83b52042b4dbfe3cdbc0fdd1d9c7455b5f48139364736f6c63430008110033",
  "immutableReferences": {},
  "source": "// SPDX-License-Identifier: MIT\r\npragma solidity ^0.8.0;\r\n\r\nimport './ERC721Connector.sol';\r\n\r\ncontract KryptoBird is ERC721Connector{\r\n\r\n    string[] public kryptoBirdz;\r\n\r\n    mapping(string => bool) _krypotBirdzExists;\r\n\r\n    function mint(string memory _kryptoBird) public {\r\n        \r\n        require(!_krypotBirdzExists[_kryptoBird], 'Error - kryptoBird already exists');\r\n        kryptoBirdz.push(_kryptoBird);\r\n\r\n        uint256 _id = kryptoBirdz.length - 1;\r\n\r\n        _mint(msg.sender, _id);\r\n\r\n        _krypotBirdzExists[_kryptoBird] = true;\r\n\r\n    }\r\n    \r\n    constructor() ERC721Connector('KryptoBird','KBIRDZ') {\r\n        \r\n    }\r\n}",
  "sourcePath": "D:\\Programs\\nft-marketplace-starter-kit\\src\\contracts\\KryptoBirdz.sol",
  "compiler": {
    "name": "solc",
    "version": "0.8.17+commit.8df45f5f.Emscripten.clang"
  },
  "schemaVersion": "3.4.10",
  "updatedAt": "2022-10-22T21:52:02.533Z",
  "networkType": "ethereum",
  "devdoc": {
    "kind": "dev",
    "methods": {},
    "version": 1
  },
  "userdoc": {
    "kind": "user",
    "methods": {},
    "version": 1
  }
}